:020000040800F2
:1000000000280020D10900086109000867090008DC
:100010006D09000873090008790900080000000054
:100020000000000000000000000000007F09000840
:100030008B0900080000000097090008A3090008C8
:10004000190A0008190A0008190A0008190A000804
:10005000190A0008190A0008190A0008190A0008F4
:10006000190A0008190A0008190A0008190A0008E4
:10007000190A0008190A0008190A0008190A0008D4
:10008000190A0008190A0008190A0008190A0008C4
:10009000190A0008190A0008190A0008190A0008B4
:1000A000190A0008190A0008190A0008190A0008A4
:1000B000B1090008190A000800000000190A000828
:1000C000190A00080000000000000000190A0008DA
:1000D00000000000190A0008190A000800000000CA
:1000E000190A0008190A0008190A0008000000008F
:1000F0000000000000000000000000000000000000
:0C01000000000000000000005FF808F1A3
:10010C0010B5054C237833B9044B13B10448AFF345
:10011C0000800123237010BD580000200000000057
:10012C00E427000808B5034B1BB103490348AFF3A0
:10013C00008008BD000000005C000020E4270008DF
:10014C0080B500AF4FF400711D4801F07DFA4FF4FB
:10015C0080611B4801F078FA4FF40061184801F0F7
:10016C0073FA4FF48051164801F06EFA4FF40051B7
:10017C00134801F069FA4FF48041114801F064FA18
:10018C004FF400410E4801F05FFA10210D4801F0C8
:10019C005BFA80210B4801F057FA4FF48071094843
:1001AC0001F052FA4FF40071064801F04DFA064B7B
:1001BC001B68064A52F82320014BDA6000BF80BD51
:1001CC00000C0140000801400C0000202000002021
:1001DC0080B500AF344B1B68013B032B56D801A2F2
:1001EC0052F823F0710200084B02000827020008A5
:1001FC00010200082D4B1B682D4A52F823202D4B71
:10020C00DA6001224FF400712B4801F005FA00224C
:10021C004021294801F000FA38E0244B5B68244A5D
:10022C0052F82320234BDA6001224021224801F0AE
:10023C00F3F900228021204801F0EEF926E01B4B57
:10024C009B681B4A52F823201A4BDA60012280214A
:10025C00194801F0E1F900224FF48071164801F0C1
:10026C00DBF913E0114BDB68114A52F82320114BD8
:10027C00DA6001224FF480710F4801F0CDF90022B1
:10028C004FF400710C4801F0C7F900BF064B1B6816
:10029C00013B054A1360044B1B68002B02DC024B2C
:1002AC0004221A6000BF80BD1C0000200C0000203E
:1002BC0020000020000C01400008014080B500AF78
:1002CC001A4B1B681A4A82FB03129210DB17D31AC3
:1002DC00184A1360154B1968154B83FB01239A10B0
:1002EC00CB17D21A13469B0013445B00CA1A114B4E
:1002FC005A60114B1B680E4A82FB03129210DB17DB
:10030C00D31A0C4A93600C4B1968094B83FB0123DD
:10031C009A10CB17D21A13469B0013445B00CA1ACF
:10032C00044BDA60FFF754FF00BF80BD00000020D3
:10033C00676666660C0000200400002080B500AFE4
:10034C00FFF7BCFF00BF80BD80B500AF144B1B682E
:10035C000133134A1360124B1B683B2B07DD104B08
:10036C0000221A600F4B1B6801330E4A13600D4BB1
:10037C001B683B2B07DD0B4B00221A600A4B1B68DA
:10038C000133094A1360084B1B68172B02DD064B1F
:10039C0000221A601021054801F056F900BF80BDFB
:1003AC00080000200400002000000020000801408C
:1003BC0080B500AF00F02CFB00F046F800F0D2F84E
:1003CC0000F01CF900F090F81B4801F045FE1B48AA
:1003DC0000F058FC4FF47A71002000F091F90A21DA
:1003EC00052000F08DF90A21062000F089F9FFF7AD
:1003FC00A7FE134B1B68012B08D12021114801F0DB
:10040C0023F94FF47A71002000F07AF90C4B5B69F8
:10041C00012B05D1FFF792FFFA21052000F070F9AE
:10042C00074B9B69012BE4D1FFF78EFF4FF47A71D8
:10043C00062000F065F9DCE7A40000207400002021
:10044C00140100200008014080B594B000AF07F102
:10045C00280328220021184602F0B6F907F11403EC
:10046C0000221A605A609A60DA601A613B1D002201
:10047C001A605A609A60DA600223BB620123BB6384
:10048C001023FB6300237B6407F12803184601F05B
:10049C00F5F80346002B01D000F02CF90F237B61FB
:1004AC000023BB610023FB6100233B6200237B62C2
:1004BC0007F114030021184601F060FB0346002BE2
:1004CC0001D000F017F902237B600023FB603B1D79
:1004DC00184601F0BBFC0346002B01D000F00AF9D2
:1004EC0000BF5037BD4680BD80B584B000AF3B1D0A
:1004FC0000221A605A609A60184B194A1A60174BFE
:10050C0000229A60154B01221A73144B00221A75A3
:10051C00124B4FF46022DA61104B00225A600F4BE1
:10052C0001221A610D4800F0D5FA0346002B01D0C8
:10053C0000F0E0F800237B600123BB600023FB602C
:10054C003B1D1946054800F04BFC0346002B01D01F
:10055C0000F0D0F800BF1037BD4680BD74000020FD
:10056C000024014080B586B000AF07F108030022DB
:10057C001A605A609A60DA603B4600221A605A6030
:10058C001D4B4FF080421A601B4B41F63F725A6074
:10059C00194B00229A60184B0922DA60164B002284
:1005AC001A61154B00229A61134801F005FD0346B0
:1005BC00002B01D000F09EF84FF48053BB6007F184
:1005CC00080319460C4801F09BFE0346002B01D092
:1005DC0000F090F800233B6000237B603B461946FB
:1005EC00054802F063F80346002B01D000F082F8B6
:1005FC0000BF1837BD4680BDA400002080B588B070
:10060C0000AF07F1100300221A605A609A60DA609A
:10061C002F4B9B692E4A43F0100393612C4B9B6923
:10062C0003F01003FB60FB68294B9B69284A43F0DD
:10063C0004039361264B9B6903F00403BB60BB6806
:10064C00234B9B69224A43F008039361204B9B691F
:10065C0003F008037B607B68002247F6FE711D489F
:10066C0000F0DAFF00224FF6FF611B4800F0D4FFC8
:10067C004FF400533B6100237B610123BB6107F105
:10068C0010031946154800F04DFE47F6FE733B610A
:10069C0001237B610023BB610223FB6107F1100383
:1006AC0019460C4800F03EFE4FF6FF633B610123F8
:1006BC007B610023BB610223FB6107F11003194628
:1006CC00054800F02FFE00BF2037BD4680BD00BF9F
:1006DC000010024000080140000C014000100140D5
:1006EC0080B582B000AF786000F028F800BF083702
:1006FC00BD4680BD80B400AF72B600BFFEE70000FF
:10070C0080B483B000AF78603960094B1B683A68DD
:10071C0092FBF3F207497B6841F82320064A7B6879
:10072C00002142F8231000BF0C37BD4680BC704737
:10073C0048000020EC0000201401002080B400AF21
:10074C00394B1B68002B0BDD374B1B68013B364AC2
:10075C001360354B1B68002B02DC344B01221A60F2
:10076C00314B5B68002B0BDD2F4B5B68013B2E4A3A
:10077C0053602D4B5B68002B02DC2C4B01225A6022
:10078C00294B9B68002B0BDD274B9B68013B264AB2
:10079C009360254B9B68002B02DC244B01229A6052
:1007AC00214BDB68002B0BDD1F4BDB68013B1E4A2A
:1007BC00D3601D4BDB68002B02DC1C4B0122DA6082
:1007CC00194B1B69002B0BDD174B1B69013B164AA0
:1007DC001361154B1B69002B02DC144B01221A61AF
:1007EC00114B5B69002B0BDD0F4B5B69013B0E4A18
:1007FC0053610D4B5B69002B02DC0C4B01225A61DF
:10080C00094B9B69002B0BDD074B9B69013B064A8F
:10081C009361054B9B69002B02DC044B01229A610E
:10082C0000BFBD4680BC7047EC00002014010020C6
:10083C0080B485B000AF154B9B69144A43F001039B
:10084C009361124B9B6903F00103BB60BB680F4BB8
:10085C00DB690E4A43F08053D3610C4BDB6903F028
:10086C0080537B607B680A4B5B68FB60FB6823F002
:10087C00E063FB60FB6843F08063FB60044AFB6849
:10088C00536000BF1437BD4680BC70470010024057
:10089C000000014080B588B000AF786007F110030C
:1008AC0000221A605A609A60DA607B681B68144AEE
:1008BC00934221D1134B9B69124A43F40073936109
:1008CC00104B9B6903F40073FB60FB680D4B9B6939
:1008DC000C4A43F0040393610A4B9B6903F0040335
:1008EC00BB60BB6801233B6103237B6107F11003F1
:1008FC001946054800F016FD00BF2037BD4680BDE7
:10090C0000240140001002400008014080B584B072
:10091C0000AF78607B681B68B3F1804F13D10C4B30
:10092C00DB690B4A43F00103D361094BDB6903F02C
:10093C000103FB60FB68002200211C2000F0BBFCC3
:10094C001C2000F0D4FC00BF1037BD4680BD00BF9A
:10095C000010024080B400AFFEE780B400AFFEE7A9
:10096C0080B400AFFEE780B400AFFEE780B400AF08
:10097C00FEE780B400AF00BFBD4680BC704780B4BA
:10098C0000AF00BFBD4680BC704780B400AF00BF55
:10099C00BD4680BC704780B500AF00F07FF800BF4B
:1009AC0080BD000080B500AF024801F0A1FB00BF84
:1009BC0080BD00BFA400002080B400AF00BFBD46C6
:1009CC0080BC70470C480D490D4A002302E0D458F6
:1009DC00C4500433C4188C42F9D30A4A0A4C00237D
:1009EC0001E013600432A242FBD3FFF7E5FF01F0F4
:1009FC00C7FEFFF7DDFC7047000000205800002008
:100A0C00242800085800002040010020FEE70000C8
:100A1C0080B500AF084B1B68074A43F01003136006
:100A2C00032000F03DFC0F2000F008F8FFF700FF5A
:100A3C000023184680BD00BF0020024080B582B064
:100A4C0000AF7860124B1A68124B1B7819464FF4A2
:100A5C007A73B3FBF1F3B2FBF3F3184600F055FCD9
:100A6C000346002B01D001230EE07B680F2B0AD824
:100A7C00002279684FF0FF3000F01DFC064A7B68BD
:100A8C001360002300E0012318460837BD4680BDE3
:100A9C004C000020540000205000002080B400AF17
:100AAC00054B1B781A46054B1B681344034A13600D
:100ABC0000BFBD4680BC7047540000203C010020A4
:100ACC0080B400AF024B1B681846BD4680BC704713
:100ADC003C01002080B586B000AF78600023FB7528
:100AEC0000233B610023BB600023FB607B68002B71
:100AFC0001D10123BEE07B689B68002B7B689B6A5D
:100B0C00002B09D17B680022DA627B68002283F813
:100B1C0024207868FFF7BEFE786800F0B3FA03462D
:100B2C00FB757B689B6A03F01003002B40F09980E7
:100B3C00FB7D002B40F095807B689B6A23F48853E7
:100B4C0023F0020343F002027B689A627B685A68C6
:100B5C007B68DB691A437B681B7B5B001343BA68B9
:100B6C001343BB607B689B68B3F5807F03D07B68C5
:100B7C009B68012B02D14FF4807300E000233A698B
:100B8C0013433B617B681B7D012B19D17B681B7B5D
:100B9C00002B09D17B689B69013B5A033B691343CA
:100BAC0043F400633B610BE07B689B6A43F02002DB
:100BBC007B689A627B68DB6A43F001027B68DA62CD
:100BCC007B681B685B6823F469417B681B683A6926
:100BDC000A435A607B681B689A68284B13407A68F2
:100BEC001268B9680B4393607B689B68B3F5807F90
:100BFC0003D07B689B68012B04D17B681B69013B8C
:100C0C001B05FB607B681B68DB6A23F470017B6847
:100C1C001B68FA680A43DA627B681B689A68184B8F
:100C2C001340BA689A420BD17B680022DA627B6867
:100C3C009B6A23F0030343F001027B689A6218E07D
:100C4C007B689B6A23F0120343F010027B689A6264
:100C5C007B68DB6A43F001027B68DA620123FB7577
:100C6C0007E07B689B6A43F010027B689A62012361
:100C7C00FB75FB7D18461837BD4680BDFDF7E1FFBF
:100C8C00FE0E1FFF80B584B000AF78600023FB73AD
:100C9C007B6893F82430012B01D1022398E07B6808
:100CAC00012283F82420786800F092F90346FB7344
:100CBC00FB7B002B40F087807B689B6A23F440739E
:100CCC0023F0010343F480727B689A627B681B6893
:100CDC00414A934205D1414B5B6803F47023002BCE
:100CEC0015D17B689B6A23F480127B689A627B68BF
:100CFC001B685B6803F48063002B26D07B689B6ABF
:100D0C0023F4405343F480527B689A621DE07B6865
:100D1C009B6A43F480127B689A627B681B682F4A3B
:100D2C00934204D07B681B682B4A93420DD12B4B0A
:100D3C005B6803F48063002B07D07B689B6A23F409
:100D4C00405343F480527B689A627B689B6A03F43D
:100D5C008053002B06D07B68DB6A23F006027B688D
:100D6C00DA6202E07B680022DA627B68002283F898
:100D7C0024207B681B686FF002021A607B681B687A
:100D8C009B6803F46023B3F5602F13D17B681B6859
:100D9C00114A934205D1114B5B6803F47023002B6D
:100DAC0008D17B681B689A687B681B6842F4A002B8
:100DBC009A600CE07B681B689A687B681B6842F43D
:100DCC0080129A6003E07B68002283F82420FB7B6E
:100DDC0018461037BD4680BD002801400024014054
:100DEC0080B485B000AF786039600023FB730023BA
:100DFC00BB607B6893F82430012B01D10223DCE02B
:100E0C007B68012283F824203B685B68062B1CD886
:100E1C007B681B68596B3B685A6813469B001344EC
:100E2C00053B1F2202FA03F3DB4319403B681868A9
:100E3C003B685A6813469B001344053B00FA03F2C7
:100E4C007B681B680A435A633CE03B685B680C2B6D
:100E5C001CD87B681B68196B3B685A6813469B004F
:100E6C001344233B1F2202FA03F3DB4319403B6874
:100E7C0018683B685A6813469B001344233B00FADE
:100E8C0003F27B681B680A431A631BE07B681B68D0
:100E9C00D96A3B685A6813469B001344413B1F2296
:100EAC0002FA03F3DB4319403B6818683B685A6845
:100EBC0013469B001344413B00FA03F27B681B680A
:100ECC000A43DA623B681B68092B1CD97B681B68D8
:100EDC00D9683B681A6813465B0013441E3B072213
:100EEC0002FA03F3DB4319403B6898683B681A68C5
:100EFC0013465B0013441E3B00FA03F27B681B682D
:100F0C000A43DA6019E07B681B6819693B681A6848
:100F1C0013465B001344072202FA03F3DB43194028
:100F2C003B6898683B681A6813465B00134400FAE8
:100F3C0003F27B681B680A431A613B681B68102B21
:100F4C0003D03B681B68112B32D17B681B681D4A90
:100F5C00934225D17B681B689B6803F40003002B2C
:100F6C0026D17B681B689A687B681B6842F4000278
:100F7C009A603B681B68102B1AD1134B1B68134AE1
:100F8C00A2FB03239A0C13469B0013445B00BB602B
:100F9C0002E0BB68013BBB60BB68002BF9D107E0EA
:100FAC007B689B6A43F020027B689A620123FB7387
:100FBC007B68002283F82420FB7B18461437BD463F
:100FCC0080BC7047002401404C00002083DE1B4392
:100FDC0080B584B000AF78600023FB600023BB6059
:100FEC007B681B689B6803F00103012B40D07B6876
:100FFC001B689A687B681B6842F001029A601F4B61
:10100C001B681F4AA2FB03239B0CBB6002E0BB685E
:10101C00013BBB60BB68002BF9D1FFF751FDF860B9
:10102C001FE0FFF74DFD0246FB68D31A022B18D9BF
:10103C007B681B689B6803F00103012B11D07B6854
:10104C009B6A43F010027B689A627B68DB6A43F010
:10105C0001027B68DA627B68002283F8242001237A
:10106C0007E07B681B689B6803F00103012BD8D158
:10107C00002318461037BD4680BD00BF4C00002031
:10108C0083DE1B4380B584B000AF78600023FB6027
:10109C007B681B689B6803F00103012B2ED17B68D6
:1010AC001B689A687B681B6822F001029A60FFF744
:1010BC0007FDF8601BE0FFF703FD0246FB68D31A3F
:1010CC00022B14D97B681B689B6803F00103012B6E
:1010DC000DD17B689B6A43F010027B689A627B6837
:1010EC00DB6A43F001027B68DA62012307E07B686C
:1010FC001B689B6803F00103012BDCD0002318460E
:10110C001037BD4680BD000080B485B000AF78605C
:10111C007B6803F00703FB600C4BDB68BB60BA68B1
:10112C004FF6FF031340BB60FB681A02BB68134306
:10113C0043F0BF6343F40033BB60044ABB68D36025
:10114C0000BF1437BD4680BC704700BF00ED00E007
:10115C0080B400AF044BDB681B0A03F0070318468E
:10116C00BD4680BC704700BF00ED00E080B483B08A
:10117C0000AF0346FB7197F90730002B0BDBFB79B3
:10118C0003F01F02064997F907305B09012000FAAA
:10119C0002F241F8232000BF0C37BD4680BC7047DB
:1011AC0000E100E080B483B000AF03463960FB710E
:1011BC0097F90730002B0ADB3B68DAB20C4997F938
:1011CC0007301201D2B20B4483F800230AE03B68CB
:1011DC00DAB20849FB7903F00F03043B1201D2B2D7
:1011EC000B441A7600BF0C37BD4680BC704700BF5D
:1011FC0000E100E000ED00E080B489B000AFF860E1
:10120C00B9607A60FB6803F00703FB61FB69C3F10B
:10121C000703042B28BF0423BB61FB690433062B93
:10122C0002D9FB69033B00E000237B614FF0FF32E6
:10123C00BB6902FA03F3DA43BB681A407B699A4034
:10124C004FF0FF317B6901FA03F3D9437B680B4004
:10125C00134318462437BD4680BC704780B582B016
:10126C0000AF78607B68013BB3F1807F01D3012331
:10127C000FE00A4A7B68013B53600F214FF0FF30AF
:10128C00FFF790FF054B00229A60044B07221A606F
:10129C00002318460837BD4680BD00BF10E000E0B3
:1012AC0080B582B000AF78607868FFF72DFF00BF83
:1012BC000837BD4680BD80B586B000AF0346B96027
:1012CC007A60FB7300237B61FFF742FF78617A68D9
:1012DC00B9687869FFF790FF024697F90F3011460D
:1012EC001846FFF75FFF00BF1837BD4680BD80B5BD
:1012FC0082B000AF0346FB7197F907301846FFF731
:10130C0035FF00BF0837BD4680BD80B582B000AF49
:10131C0078607868FFF7A2FF034618460837BD4689
:10132C0080BD000080B48BB000AF786039600023C2
:10133C007B6200233B6248E101227B6A02FA03F3E1
:10134C00FB613B681B68FA691340BB61BA69FB69B6
:10135C009A4240F037813B685B68A34A93425ED067
:10136C00A14A934275D8A14A934258D09F4A9342BE
:10137C006FD89F4A934252D09D4A934269D89D4A56
:10138C0093424CD09B4A934263D89B4A934246D09B
:10139C00994A93425DD8122B2AD8122B59D801A204
:1013AC0052F823F02B140008051400081714000839
:1013BC00591400085F1400085F1400085F1400083B
:1013CC005F1400085F1400085F1400085F14000825
:1013DC005F1400085F1400085F1400085F14000815
:1013EC005F1400085F1400080D1400082114000895
:1013FC00824A934213D02CE03B68DB683B6229E0C5
:10140C003B68DB6804333B6224E03B68DB680833F1
:10141C003B621FE03B68DB680C333B621AE03B68C5
:10142C009B68002B02D104233B6213E03B689B6852
:10143C00012B05D108233B627B68FA691A6109E02C
:10144C0008233B627B68FA695A6103E000233B6224
:10145C0000E000BFBB69FF2B01D87B6801E07B6813
:10146C0004337B61BB69FF2B02D87B6A9B0002E0D3
:10147C007B6A083B9B003B617B691A680F213B69C7
:10148C0001FA03F3DB431A40396A3B6901FA03F3AF
:10149C001A437B691A603B685B6803F08053002B2E
:1014AC0000F09080564B9B69554A43F001039361C1
:1014BC00534B9B6903F00103BB60BB68514A7B6AC9
:1014CC009B08023352F82330FB607B6A03F0030362
:1014DC009B000F2202FA03F3DB43FA681340FB6014
:1014EC007B68494A93420DD07B68484A934207D0A7
:1014FC007B68474A934201D1022304E0032302E0B4
:10150C00012300E000237A6A02F003029200934068
:10151C00FA681343FB603B497B6A9B080233FA6809
:10152C0041F823203B685B6803F48033002B06D022
:10153C00384B1A683749BB6913430B6006E0354BCF
:10154C001A68BB69DB43334913400B603B685B682B
:10155C0003F40033002B06D02E4B5A682D49BB697F
:10156C0013434B6006E02B4B5A68BB69DB4329499C
:10157C0013404B603B685B6803F48013002B06D070
:10158C00244B9A682349BB6913438B6006E0214BBB
:10159C009A68BB69DB431F4913408B603B685B68EF
:1015AC0003F40013002B06D01A4BDA681949BB69F7
:1015BC001343CB6006E0174BDA68BB69DB43154974
:1015CC001340CB607B6A01337B623B681A687B6A91
:1015DC0022FA03F3002B7FF4AFAE00BF00BF2C3711
:1015EC00BD4680BC704700BF0000321000003110B7
:1015FC000000221000002110000012100000111039
:10160C00001002400000014000080140000C0140A5
:10161C00001001400004014080B483B000AF78603A
:10162C000B467B8013467B707B78002B03D07A882B
:10163C007B681A6103E07B881A047B681A6100BF1F
:10164C000C37BD4680BC704780B485B000AF786065
:10165C000B467B807B68DB68FB607A88FB681340F9
:10166C001A04FB68D9437B880B401A437B681A61C8
:10167C0000BF1437BD4680BC7047000080B586B0F3
:10168C0000AF78607B68002B01D101236CE27B6892
:10169C001B6803F00103002B00F08780924B5B6802
:1016AC0003F00C03042B0CD08F4B5B6803F00C0382
:1016BC00082B12D18C4B5B6803F48033B3F5803F5D
:1016CC000BD1894B1B6803F40033002B6CD07B6867
:1016DC005B68002B68D1012346E27B685B68B3F53D
:1016EC00803F06D1804B1B687F4A43F480331360E4
:1016FC002EE07B685B68002B0CD17B4B1B687A4A15
:10170C0023F480331360784B1B68774A23F48023CF
:10171C0013601DE07B685B68B3F5A02F0CD1724B96
:10172C001B68714A43F4802313606F4B1B686E4A2D
:10173C0043F4803313600BE06B4B1B686A4A23F451
:10174C0080331360684B1B68674A23F48023136053
:10175C007B685B68002B13D0FFF7B2F9386108E0A7
:10176C00FFF7AEF902463B69D31A642B01D9032368
:10177C00FAE15D4B1B6803F40033002BF0D014E04E
:10178C00FFF79EF9386108E0FFF79AF902463B69CA
:10179C00D31A642B01D90323E6E1534B1B6803F4E2
:1017AC000033002BF0D100E000BF7B681B6803F016
:1017BC000203002B63D04C4B5B6803F00C03002B33
:1017CC000BD0494B5B6803F00C03082B1CD1464B28
:1017DC005B6803F48033002B16D1434B1B6803F07A
:1017EC000203002B05D07B681B69012B01D0012360
:1017FC00BAE13D4B1B6823F0F8027B685B69DB00A8
:10180C00394913430B603AE07B681B69002B20D0ED
:10181C00364B01221A60FFF753F9386108E0FFF7E5
:10182C004FF902463B69D31A022B01D903239BE1E2
:10183C002D4B1B6803F00203002BF0D02A4B1B68C6
:10184C0023F0F8027B685B69DB00274913430B60CC
:10185C0015E0264B00221A60FFF732F9386108E0D8
:10186C00FFF72EF902463B69D31A022B01D9032349
:10187C007AE11D4B1B6803F00203002BF0D17B684F
:10188C001B6803F00803002B3AD07B689B69002B84
:10189C0019D0174B01221A60FFF712F9386108E0D2
:1018AC00FFF70EF902463B69D31A022B01D9032329
:1018BC005AE10D4B5B6A03F00203002BF0D00120C0
:1018CC0000F0A6FA1CE00A4B00221A60FFF7F8F8A9
:1018DC0038610FE0FFF7F4F802463B69D31A022B8C
:1018EC0008D9032340E100BF00100240000042422F
:1018FC00800442429E4B5B6A03F00203002BE9D149
:10190C007B681B6803F00403002B00F0A680002307
:10191C00FB75974BDB6903F08053002B0DD1944B77
:10192C00DB69934A43F08053D361914BDB6903F03D
:10193C008053BB60BB680123FB758E4B1B6803F4A3
:10194C008073002B18D18B4B1B688A4A43F480732D
:10195C001360FFF7B5F8386108E0FFF7B1F80246FD
:10196C003B69D31A642B01D90323FDE0814B1B681F
:10197C0003F48073002BF0D07B68DB68012B06D15D
:10198C007B4B1B6A7A4A43F0010313622DE07B68A0
:10199C00DB68002B0CD1764B1B6A754A23F00103D4
:1019AC001362734B1B6A724A23F0040313621CE02C
:1019BC007B68DB68052B0CD16D4B1B6A6C4A43F0C2
:1019CC00040313626A4B1B6A694A43F001031362F6
:1019DC000BE0674B1B6A664A23F001031362644BEE
:1019EC001B6A634A23F0040313627B68DB68002BD9
:1019FC0015D0FFF765F838610AE0FFF761F8024689
:101A0C003B69D31A41F28832934201D90323ABE0EC
:101A1C00574B1B6A03F00203002BEED014E0FFF7C8
:101A2C004FF838610AE0FFF74BF802463B69D31ACE
:101A3C0041F28832934201D9032395E04C4B1B6A47
:101A4C0003F00203002BEED1FB7D012B05D1484B9B
:101A5C00DB69474A23F08053D3617B68DB69002B39
:101A6C0000F08180424B5B6803F00C03082B61D0C3
:101A7C007B68DB69022B46D13F4B00221A60FFF7D3
:101A8C001FF8386108E0FFF71BF802463B69D31AD0
:101A9C00022B01D9032367E0354B1B6803F000735D
:101AAC00002BF0D17B681B6AB3F5803F08D1304B1B
:101ABC005B6823F400327B689B682D4913434B60B1
:101ACC002B4B5B6823F474127B68196A7B685B6A26
:101ADC000B43274913434B60274B01221A60FEF737
:101AEC00EFFF386108E0FEF7EBFF02463B69D31AC3
:101AFC00022B01D9032337E01D4B1B6803F0007345
:101B0C00002BF0D02FE01C4B00221A60FEF7D8FF00
:101B1C00386108E0FEF7D4FF02463B69D31A022B6A
:101B2C0001D9032320E0124B1B6803F00073002B38
:101B3C00F0D118E07B68DB69012B01D1012313E0A4
:101B4C000B4B5B68FB60FB6803F480327B681B6AA1
:101B5C009A4206D1FB6803F470127B685B6A9A4266
:101B6C0001D0012300E0002318461837BD4680BD84
:101B7C0000100240007000406000424280B584B00A
:101B8C0000AF786039607B68002B01D10123D0E075
:101B9C006A4B1B6803F007033A689A4210D9674BEB
:101BAC001B6823F0070265493B6813430B60634BCA
:101BBC001B6803F007033A689A4201D00123B8E08E
:101BCC007B681B6803F00203002B20D07B681B682A
:101BDC0003F00403002B05D0594B5B68584A43F4BF
:101BEC00E06353607B681B6803F00803002B05D08F
:101BFC00534B5B68524A43F460535360504B5B68E1
:101C0C0023F0F0027B689B684D4913434B607B6863
:101C1C001B6803F00103002B40D07B685B68012B31
:101C2C0007D1474B1B6803F40033002B15D101235C
:101C3C007FE07B685B68022B07D1414B1B6803F08C
:101C4C000073002B09D1012373E03D4B1B6803F09B
:101C5C000203002B01D101236BE0394B5B6823F0AD
:101C6C0003027B685B68364913434B60FEF728FF21
:101C7C00F8600AE0FEF724FF0246FB68D31A41F233
:101C8C008832934201D9032353E02D4B5B6803F058
:101C9C000C027B685B689B009A42EBD1274B1B685C
:101CAC0003F007033A689A4210D2244B1B6823F0C6
:101CBC00070222493B6813430B60204B1B6803F05F
:101CCC0007033A689A4201D0012332E07B681B6813
:101CDC0003F00403002B08D0194B5B6823F4E0627B
:101CEC007B68DB68164913434B607B681B6803F009
:101CFC000803002B09D0124B5B6823F460527B68FD
:101D0C001B69DB000E4913434B6000F021F80246BF
:101D1C000B4B5B681B0903F00F030A49CB5C22FADF
:101D2C0003F3094A1360094B1B681846FEF786FE3D
:101D3C00002318461037BD4680BD00BF002002406E
:101D4C00001002400C2800084C000020500000201D
:101D5C0090B48AB000AF2A4B3C1D0FCB84E80F0027
:101D6C0040F201233B800023FB610023BB61002375
:101D7C007B6200237B6100233B62224B5B68FB612F
:101D8C00FB6903F00C03042B02D0082B03D02DE0CD
:101D9C001D4B3B622DE0FB699B0C03F00F0307F11D
:101DAC002802134413F8243C7B61FB6903F4803351
:101DBC00002B13D0134B5B685B0C03F0010307F192
:101DCC002802134413F8283CBB617B690E4A02FBC2
:101DDC0003F2BB69B2FBF3F37B6204E07B690B4A51
:101DEC0002FB03F37B627B6A3B6202E0064B3B62C5
:101DFC0000BF3B6A18462837BD4690BC704700BFF1
:101E0C00FC2700080010024000127A0000093D0077
:101E1C0080B485B000AF78600A4B1B680A4AA2FBFD
:101E2C0003235B0A7A6802FB03F3FB6000BFFB68C9
:101E3C005A1EFA60002BF9D100BF00BF1437BD4603
:101E4C0080BC70474C000020D34D621080B586B02A
:101E5C0000AF786000233B610023FB607B681B684C
:101E6C0003F00103002B7DD00023FB754F4BDB6986
:101E7C0003F08053002B0DD14C4BDB694B4A43F0E4
:101E8C008053D361494BDB6903F08053BB60BB6863
:101E9C000123FB75464B1B6803F48073002B18D190
:101EAC00434B1B68424A43F480731360FEF708FEF1
:101EBC00386108E0FEF704FE02463B69D31A642B36
:101ECC0001D903236DE03A4B1B6803F48073002B9C
:101EDC00F0D0364B1B6A03F44073FB60FB68002B9D
:101EEC002ED07B685B6803F44073FA689A4227D063
:101EFC002E4B1B6A23F44073FB602E4B01221A609D
:101F0C002C4B00221A60294AFB681362FB6803F011
:101F1C000103002B14D0FEF7D3FD38610AE0FEF765
:101F2C00CFFD02463B69D31A41F28832934201D964
:101F3C00032336E01D4B1B6A03F00203002BEED08B
:101F4C001A4B1B6A23F440727B685B681749134376
:101F5C000B62FB7D012B05D1144BDB69134A23F07B
:101F6C008053D3617B681B6803F00203002B08D0FD
:101F7C000E4B5B6823F440427B689B680B49134310
:101F8C004B607B681B6803F01003002B08D0074BD9
:101F9C005B6823F480027B68DB68044913434B6065
:101FAC00002318461837BD4680BD00BF0010024004
:101FBC00007000404004424280B582B000AF7860AF
:101FCC007B68002B01D1012341E07B6893F83D3005
:101FDC00DBB2002B06D17B68002283F83C207868AA
:101FEC00FEF794FC7B68022283F83D207B681A681C
:101FFC007B6804331946104600F06AFA7B680122AC
:10200C0083F846207B68012283F83E207B680122FE
:10201C0083F83F207B68012283F840207B680122F3
:10202C0083F841207B68012283F842207B680122DF
:10203C0083F843207B68012283F844207B680122CB
:10204C0083F845207B68012283F83D200023184645
:10205C000837BD4680BD000080B485B000AF786005
:10206C007B6893F83D30DBB2012B01D0012335E0C6
:10207C007B68022283F83D207B681B68DA687B68EA
:10208C001B6842F00102DA607B681B68164A9342B7
:10209C0009D07B681B68B3F1804F04D07B681B6848
:1020AC00124A934211D17B681B689B6803F00703AB
:1020BC00FB60FB68062B10D07B681B681A687B687A
:1020CC001B6842F001021A6007E07B681B681A6803
:1020DC007B681B6842F001021A6000231846143713
:1020EC00BD4680BC704700BF002C0140000400407E
:1020FC0080B582B000AF78607B681B681B6903F009
:10210C000203022B22D17B681B68DB6803F00203FD
:10211C00022B1BD17B681B686FF002021A617B6873
:10212C0001221A777B681B689B6903F00303002B61
:10213C0003D0786800F0B1F905E0786800F0A4F9F4
:10214C00786800F0B3F97B6800221A777B681B680B
:10215C001B6903F00403042B22D17B681B68DB682A
:10216C0003F00403042B1BD17B681B686FF0040283
:10217C001A617B6802221A777B681B689B6903F4DF
:10218C004073002B03D0786800F087F905E078687D
:10219C0000F07AF9786800F089F97B6800221A77E8
:1021AC007B681B681B6903F00803082B22D17B6832
:1021BC001B68DB6803F00803082B1BD17B681B68CA
:1021CC006FF008021A617B6804221A777B681B681F
:1021DC00DB6903F00303002B03D0786800F05DF992
:1021EC0005E0786800F050F9786800F05FF97B68DA
:1021FC0000221A777B681B681B6903F01003102BF5
:10220C0022D17B681B68DB6803F01003102B1BD1F9
:10221C007B681B686FF010021A617B6808221A77C2
:10222C007B681B68DB6903F44073002B03D0786870
:10223C0000F033F905E0786800F026F9786800F0D2
:10224C0035F97B6800221A777B681B681B6903F0E1
:10225C000103012B0ED17B681B68DB6803F00103C3
:10226C00012B07D17B681B686FF001021A6178683B
:10227C00FEF736FA7B681B681B6903F08003802B22
:10228C000ED17B681B68DB6803F08003802B07D1C1
:10229C007B681B686FF080021A61786800F067FA3F
:1022AC007B681B681B6903F04003402B0ED17B68D5
:1022BC001B68DB6803F04003402B07D17B681B686D
:1022CC006FF040021A61786800F0F9F87B681B68BF
:1022DC001B6903F02003202B0ED17B681B68DB6885
:1022EC0003F02003202B07D17B681B686FF02002C2
:1022FC001A61786800F032FA00BF0837BD4680BD1D
:10230C0080B584B000AF786039607B6893F83C305E
:10231C00012B01D10223B3E07B68012283F83C201E
:10232C007B68022283F83D207B681B689B68FB60FE
:10233C00FB6823F07703FB60FB6823F47F43FB60AF
:10234C007B681B68FA689A603B681B68B3F5005F92
:10235C003ED0B3F5005F00F28780B3F5805F00F0EC
:10236C008580B3F5805F7FD8702B1AD0702B7BD80B
:10237C00602B50D0602B77D8502B3CD0502B73D87F
:10238C00402B58D0402B6FD8302B64D0302B6BD8CF
:10239C00202B60D0202B67D8002B5CD0102B5AD070
:1023AC0062E07B6818683B6899683B685A683B68D0
:1023BC00DB6800F05CF97B681B689B68FB60FB6862
:1023CC0043F07703FB607B681B68FA689A604EE009
:1023DC007B6818683B6899683B685A683B68DB689F
:1023EC0000F045F97B681B689A687B681B6842F4AF
:1023FC0080429A603BE07B6818683B6859683B6890
:10240C00DB681A4600F0BCF87B681B685021184644
:10241C0000F013F92BE07B6818683B6859683B683F
:10242C00DB681A4600F0DAF87B681B6860211846F6
:10243C0000F003F91BE07B6818683B6859683B683F
:10244C00DB681A4600F09CF87B681B684021184634
:10245C0000F0F3F80BE07B681A683B681B681946C0
:10246C00104600F0EAF802E000BF00E000BF7B6815
:10247C00012283F83D207B68002283F83C20002356
:10248C0018461037BD4680BD80B483B000AF78606D
:10249C0000BF0C37BD4680BC704780B483B000AF22
:1024AC00786000BF0C37BD4680BC704780B483B0E9
:1024BC0000AF786000BF0C37BD4680BC704780B45D
:1024CC0083B000AF786000BF0C37BD4680BC70474E
:1024DC0080B485B000AF786039607B681B68FB60A6
:1024EC007B68254A934207D07B68B3F1804F03D0B9
:1024FC007B68224A934208D1FB6823F07003FB608F
:10250C003B685B68FA681343FB607B681A4A93422A
:10251C0007D07B68B3F1804F03D07B68174A934296
:10252C0008D1FB6823F44073FB603B68DB68FA68F6
:10253C001343FB60FB6823F080023B685B69134329
:10254C00FB607B68FA681A603B689A687B68DA62A1
:10255C003B681A687B689A627B68074A934203D18E
:10256C003B681A697B681A637B6801225A6100BF59
:10257C001437BD4680BC7047002C0140000400405D
:10258C0080B487B000AFF860B9607A60FB681B6AF2
:10259C007B61FB681B6A23F00102FB681A62FB6813
:1025AC009B693B613B6923F0F0033B617B681B013A
:1025BC003A6913433B617B6923F00A037B617A69B7
:1025CC00BB6813437B61FB683A699A61FB687A6963
:1025DC001A6200BF1C37BD4680BC704780B487B000
:1025EC0000AFF860B9607A60FB681B6A23F01002D8
:1025FC00FB681A62FB689B697B61FB681B6A3B6129
:10260C007B6923F470437B617B681B037A691343FA
:10261C007B613B6923F0A0033B61BB681B013A69FA
:10262C0013433B61FB687A699A61FB683A691A62E9
:10263C0000BF1C37BD4680BC704780B485B000AF6E
:10264C00786039607B689B68FB60FB6823F07003E3
:10265C00FB603A68FB68134343F00703FB607B683D
:10266C00FA689A6000BF1437BD4680BC704780B4CE
:10267C0087B000AFF860B9607A603B60FB689B681C
:10268C007B617B6923F47F437B613B681A027B6827
:10269C001A43BB6813437A6913437B61FB687A69FD
:1026AC009A6000BF1C37BD4680BC704780B485B0B3
:1026BC0000AF786039607B6893F83C30012B01D116
:1026CC00022341E07B68012283F83C207B680222D4
:1026DC0083F83D207B681B685B68FB607B681B682C
:1026EC009B68BB60FB6823F07003FB603B681B6856
:1026FC00FA681343FB607B681B68FA685A607B6856
:10270C001B68144A934209D07B681B68B3F1804F55
:10271C0004D07B681B68104A93420CD1BB6823F031
:10272C008003BB603B685B68BA681343BB607B6823
:10273C001B68BA689A607B68012283F83D207B682D
:10274C00002283F83C20002318461437BD4680BC79
:10275C00704700BF002C01400004004080B483B0DF
:10276C0000AF786000BF0C37BD4680BC704780B4AA
:10277C0083B000AF786000BF0C37BD4680BC70479B
:10278C0070B500260C4D0D4C641BA410A64209D14B
:10279C0000F022F800260A4D0A4C641BA410A64235
:1027AC0005D170BD55F8043B98470136EEE755F856
:1027BC00043B98470136F2E71C2800081C28000847
:1027CC001C2800082028000803460244934200D12C
:1027DC00704703F8011BF9E7F8B500BFF8BC08BC5B
:1027EC009E467047F8B500BFF8BC08BC9E467047C3
:1027FC0002030405060708090A0B0C0D0E0F101036
:10280C000000000000000000010203040607080994
:04281C00310100087E
:042820000D0100089E
:102824000F0000000800000032000000010000005A
:102834000200000003000000040000000400000087
:10284400FF810000FFF30000FF490000FF6100006A
:10285400FF330000FF250000FF050000FFF100002A
:10286400FF010000FF2100000A0000000024F40022
:0828740010000000010000004B
:04000005080009D115
:00000001FF
