:020000040800F2
:1000000000500020DD190008E1140008E714000882
:10001000ED140008F3140008F914000800000000B3
:10002000000000000000000000000000FF140008B5
:100030000B15000800000000171500082315000824
:10004000251A0008251A0008251A0008251A000894
:10005000251A0008251A0008251A0008251A000884
:10006000251A0008251A0008251A0008251A000874
:10007000251A0008251A0008251A0008251A000864
:10008000251A0008251A0008251A0008251A000854
:10009000251A0008251A0008251A0008251A000844
:1000A000251A0008251A0008251A0008251A000834
:1000B00031150008251A0008251A0008251A00081D
:1000C000251A0008251A0008251A0008251A000814
:1000D000251A0008251A000845150008251A0008E9
:1000E000251A0008251A0008251A0008000000003B
:1000F0000000000000000000000000000000000000
:0C01000000000000000000005FF808F1A3
:10010C0010B5054C237833B9044B13B10448AFF345
:10011C0000800123237010BDEC00002000000000C3
:10012C00FC5D000808B5034B1BB103490348AFF352
:10013C00008008BD00000000F0000020FC5D0008FD
:10014C0010F8012B11F8013B012A28BF9A42F7D075
:10015C00D01A7047034613F8012B002AFBD1181A4A
:10016C000138704780B483B000AF78607B68032B94
:10017C0001DD00230DE0094A7B6852F82330012B86
:10018C0006D1064A7B68002142F82310012300E0C7
:10019C00002318460C37BD4680BC70470801002070
:1001AC0080B483B000AF7860044A7B68012142F8C8
:1001BC00231000BF0C37BD4680BC704708010020DF
:1001CC0080B582B000AF00237B6084E0464A7B6838
:1001DC0052F8232045497B6841F82320444A7B6828
:1001EC0052F8232040497B6841F823207B68032B7D
:1001FC000ED1404A7B6832F8133019463E4801F064
:10020C00D7FF034619463A4A7B6842F823100DE0A3
:10021C00384A7B6832F813301946384801F0C8FF69
:10022C0003461946324A7B6842F823102E4A7B68F3
:10023C0052F823202D497B6851F823309A4247D13C
:10024C00294A7B6852F8232029497B6851F82330CE
:10025C009A423DD1264A7B6852F8232028497B6874
:10026C0051F823309A4216D0214A7B6852F8232049
:10027C0023497B6841F823201D4A7B6852F82330C0
:10028C00002B25D11F4A7B68C82142F823107868BF
:10029C00FFF786FF1CE01B4A7B6852F823305A1E7E
:1002AC0018497B6841F82320164A7B6852F82330A2
:1002BC00002B0DD1134A7B68C82142F823100C4A3D
:1002CC007B6852F82330002B02D17868FFF768FF67
:1002DC007B6801337B607B68032B7FF777AF00BFB4
:1002EC0000BF0837BD4680BD100000200000002074
:1002FC00200000205000002000100140000C0140A4
:10030C00300000204000002080B586B000AF78603F
:10031C003960264B1B68002B1ED07B687B613B68C9
:10032C003B61802000F08AFB0021012000F030FCB2
:10033C007A691F491F4804F0BFFA1E4800F00CFCF4
:10034C000021002000F024FC3A691949194804F0F6
:10035C00B3FA184800F000FC144B1B680B2B20D18F
:10036C0000F00FFC7B68FB603B68BB60802000F0FA
:10037C0065FB0021012000F00BFCFA680C490D48CC
:10038C0004F09AFA0B4800F0E7FB0021002000F083
:10039C00FFFBBA680649074804F08EFA054800F0DE
:1003AC00DBFB00BF1837BD4680BD00BF1C01002021
:1003BC00145E00084801002080B500AF00F0E1FB9E
:1003CC00002208210A4801F00AFF002220210848D7
:1003DC0001F005FF00224FF40071064801F0FFFE0A
:1003EC0000224FF48071034801F0F9FE00BF80BD7C
:1003FC00000C01400008014080B500AF01F008FA84
:10040C0000F0ECFA00BF80BD80B500AFBC4B1B68A0
:10041C00112B00F2C58101A252F823F071040008DF
:10042C00AD070008AD070008AD070008AD070008D0
:10043C00AD070008AD070008AD070008AD070008C0
:10044C00AD070008AD070008E90400080D05000819
:10045C0067050008DD05000837060008AD06000832
:10046C0039070008802000F0E9FA0421012000F08F
:10047C008FFBA44800F070FB0020FFF773FE0346CF
:10048C00012B40F08F8140F2F231032000F0C2FECC
:10049C000A21022000F0BEFE40F2F231012000F0F1
:1004AC00B9FE40F2F231002000F0B4FE964B00226F
:1004BC001A60964B00221A60914B0B221A60944BD7
:1004CC0000221A60934B00221A60934B01221A608F
:1004DC00924B00221A60FFF76FFF63E100F090FA75
:1004EC000020FFF73FFE0346012B40F05D818C4B53
:1004FC0001221A60824B0C221A60FFF75DFF53E158
:10050C00012001F0E9F8052001F02CF9824B0222C0
:10051C001A60834B1B68814A136000F071FA00204B
:10052C00FFF720FE0346012B07D17D4B01221A60F9
:10053C00734B0E221A60FFF73FFF0320FFF712FEEA
:10054C000346012B40F03281754B01221A606C4B33
:10055C000D221A60FFF730FF28E1012001F0BCF8F2
:10056C00052001F0FFF86C4B03221A606C4B1B68E2
:10057C006A4A136000F044FA0120FFF7F3FD0346CA
:10058C00012B0DD1664B1B680133654A1360644B1C
:10059C001B68632B04DD624B01221A60FFF70CFF12
:1005AC000220FFF7DFFD0346012B40F001815C4B7D
:1005BC001B684FF47A7202FB03F35A4A1360584BD0
:1005CC0001221A60FFF7F8FE4D4B0C221A60EFE087
:1005DC00032001F081F8072001F0C4F84E4B0422EF
:1005EC001A604F4B1B684D4A136000F009FA00204B
:1005FC00FFF7B8FD0346012B07D1494B01221A60C6
:10060C003F4B10221A60FFF7D7FE0320FFF7AAFD1D
:10061C000346012B40F0CE80414B01221A60384B2F
:10062C000F221A60FFF7C8FEC4E0032001F054F853
:10063C00072001F097F8384B05221A60384B1B68DD
:10064C00364A136000F0DCF90120FFF78BFD0346FE
:10065C00012B0DD1324B1B680133314A1360304BE7
:10066C001B68632B04DD2E4B01221A60FFF7A4FEDE
:10067C000220FFF777FD0346012B40F09D80284BAD
:10068C001B684FF47A7202FB03F3274A1360244B66
:10069C0001221A60FFF790FE194B0E221A608BE0B4
:1006AC00022001F019F8062001F05CF81A4B062222
:1006BC001A601B4B1B68194A136000F0A1F900204B
:1006CC00FFF750FD0346012B0AD1154B01221A608E
:1006DC000B4B00221A60FFF76FFE022000F0AEF900
:1006EC000320FFF73FFD0346012B67D10C4B012282
:1006FC001A60034B11221A60FFF75EFE5EE000BF2A
:10070C001C010020185E000820010020240100209C
:10071C00280100202C010020340100203801002089
:10072C0030010020580000205C000020022000F066
:10073C00D3FF062001F016F8234B07221A60234B37
:10074C001B68234A136000F05BF90120FFF70AFDD8
:10075C000346012B0DD11D4B1B6801331B4A136043
:10076C001A4B1B68632B04DD184B01221A60FFF730
:10077C0023FE0220FFF7F6FC0346012B20D1134B7E
:10078C001B684FF47A7202FB03F3124A13600F4B8F
:10079C0001221A60FFF710FE0F4B10221A600FE0B7
:1007AC0000BF0EE000BF0CE000BF0AE000BF08E095
:1007BC0000BF06E000BF04E000BF02E000BF00E0A5
:1007CC0000BF00BF80BD00BF3401002030010020FD
:1007DC0038010020600000201C01002080B500AF13
:1007EC00754B1B680B2B40F0D480744B1B68032B90
:1007FC005DD801A252F823F0150800083108000852
:10080C008D0800085F0800086D4B1B686D4A82FB61
:10081C0003129211DB17D31A6B4A1360674B012238
:10082C001A604BE0684B1B68013B674A1360664BD0
:10083C001B68002B3DDC654B1B68624A82FB031274
:10084C009211DB17D31A604A13605C4B02221A60B8
:10085C002FE05D4B1B68013B5B4A13605A4B1B68D6
:10086C00002B28DC564B1B68564A82FB0312921154
:10087C00DB17D31A544A1360504B01221A601AE04A
:10088C00514B1B68013B504A13604F4B1B68002BAC
:10089C0013DC4F4B1B684B4A82FB03129211DB1784
:1008AC00D31A494A1360454B03221A6005E000BF76
:1008BC0004E000BF02E000BF00E000BF454B1B6836
:1008CC00072B68D801A252F823F000BFF9080008E2
:1008DC00A3090008A3090008A3090008A30900083C
:1008EC00150900087109000843090008374B1B68FB
:1008FC00344A82FB03129211DB17D31A364A136067
:10090C00344B06221A604DE0334B1B68013B324AD4
:10091C001360314B1B68002B3FDC2C4B1B68294AA6
:10092C0082FB03129211DB17D31A2B4A1360294B4B
:10093C0006221A6031E0284B1B68013B264A1360E3
:10094C00254B1B68002B2ADC1D4B1B681D4A82FBA8
:10095C0003129211DB17D31A1F4A13601D4B052289
:10096C001A601CE01C4B1B68013B1B4A13601A4BA2
:10097C001B68002B15DC164B1B68124A82FB0312FA
:10098C009211DB17D31A144A1360124B07221A6008
:10099C0007E000BF06E000BF04E000BF02E000BFBC
:1009AC0000E000BF084B1B680B4A12681146184642
:1009BC00FFF7AAFC00BF80BD1C010020280100200D
:1009CC0058000020D34D621034010020600000203C
:1009DC005C0000202C0100203801002080B500AF05
:1009EC00064BDB68012B06D1FFF7F8FE4FF47A714A
:1009FC00032000F00FFC00BF80BD00BFCC02002024
:100A0C0080B500AF094B9B68012B0DD1084B1B68BF
:100A1C00084A126811461846FFF776FC064B1B680D
:100A2C001946022000F0F6FB00BF80BDCC0200206E
:100A3C0034010020380100206400002080B586B00D
:100A4C0002AF0346FB71FB7923F00F03FB73FB79B9
:100A5C001B01BB73FB7B43F00C03DBB23B72FB7BD8
:100A6C0043F00803DBB27B72BB7B43F00C03DBB2BD
:100A7C00BB72BB7B43F00803DBB2FB7207F10802CD
:100A8C006423009304234221034801F01DFD00BFA1
:100A9C001037BD4680BD00BFC001002080B586B0B8
:100AAC0002AF0346FB71FB7923F00F03FB73FB7959
:100ABC001B01BB73FB7B43F00D03DBB23B72FB7B77
:100ACC0043F00903DBB27B72BB7B43F00D03DBB25B
:100ADC00BB72BB7B43F00903DBB2FB7207F108026C
:100AEC006423009304234221034801F0EDFC00BF72
:100AFC001037BD4680BD00BFC001002080B500AFDF
:100B0C003320FFF79BFF3220FFF798FF322000F0D5
:100B1C00E7FF2820FFF792FF322000F0E1FF0120D1
:100B2C00FFF78CFF322000F0DBFF0620FFF786FF7B
:100B3C00322000F0D5FF0C20FFF780FF322000F0B0
:100B4C00CFFF0220FFF77AFF322000F0C9FF802090
:100B5C00FFF774FF00BF80BD80B582B000AF786036
:100B6C0006E07B685A1C7A601B781846FFF796FFE4
:100B7C007B681B78002BF4D100BF00BF0837BD4643
:100B8C0080BD80B500AF0120FFF758FF00BF80BDCE
:100B9C0080B584B000AF786039607B68012B08D1D8
:100BAC007B68DAB23B68DBB21344DBB27F33FB7396
:100BBC0008E03B68DBB24033DBB25BB263F07F032F
:100BCC005BB2FB73FB7B1846FFF738FF00BF103797
:100BDC00BD4680BD80B586B000AF78600122A849C3
:100BEC00A84803F0A4F8A64B1B780D2B17D0A44BE8
:100BFC001B780D2B13D0A24B1B780A2B0FD0A24BBA
:100C0C001B685A1CA0490A609D4A11789F4AD1540E
:100C1C009D4B1B68622B02D99B4B63221A60984B2D
:100C2C001B780D2B40F02881974B00221A60944BB7
:100C3C0000221A709548FFF78DFA03467B6107E096
:100C4C007B69013B7B61914A7B69134400221A70DA
:100C5C007B69002B0BDD7B69013B8C4AD35C0D2B34
:100C6C00EED07B69013B894AD35C0A2BE8D08748DC
:100C7C00FFF770FA03469AB264238449814802F064
:100C8C00CBFF83498148FFF75BFA0346002B30D139
:100C9C00804B0B221A6020217F4801F0B8FA40F2F9
:100CAC00F231032000F0B6FA0A21022000F0B2FA69
:100CBC0040F2F231012000F0ADFA40F2F2310020A6
:100CCC0000F0A8FA754B00221A60754B00221A60CE
:100CDC00704B0B221A60734B00221A60724B00226D
:100CEC001A60724B01221A60714B00221A60FFF7D6
:100CFC0063FB70496548FFF723FA0346002B0BD1C1
:100D0C00FFF75AFB8020FFF799FE04210120FFF723
:100D1C003FFF604B00221A6067495C48FFF710FAEE
:100D2C000346002B17D1FFF747FB8020FFF786FE09
:100D3C0004210120FFF72CFF564B00221A600120E2
:100D4C0000F0CAFC062000F00DFD584B00221A6082
:100D5C00574B00221A6059494C48FFF7F1F90346EA
:100D6C00002B17D1FFF728FB8020FFF767FE04212B
:100D7C000120FFF70DFF474B00221A60022000F004
:100D8C00ABFC052000F0EEFC484B00221A60484BEF
:100D9C0000221A604A493D48FFF7D2F90346002B5E
:100DAC0017D1FFF709FB8020FFF748FE0421012033
:100DBC00FFF7EEFE374B00221A60032000F08CFC8C
:100DCC00072000F0CFFC394B00221A60384B002270
:100DDC001A6007223B492D4803F08EFD0346002B79
:100DEC0045D13949294803F099FD38610023FB604E
:100DFC002EE0FB68012B09D1386903F027FD03466F
:100E0C004FF47A7202FB03F3304A1360FB68022B37
:100E1C0009D1386903F01AFD03464FF47A7202FBCC
:100E2C0003F32B4A1360FB68032B09D1386903F0D9
:100E3C000DFD03464FF47A7202FB03F3254A13604F
:100E4C002149002003F06AFD3861FB680133FB6027
:100E5C003B69002BCDD1FFF7AFFA8020FFF7EEFDF9
:100E6C0004210120FFF794FE0A4B00221A60642231
:100E7C000021064803F018FD00BF1837BD4680BDA1
:100E8C00BC0100205C020020180100205801002049
:100E9C00245E00081C0100200008014020010020F5
:100EAC0024010020280100202C0100203401002006
:100EBC00380100202C5E0008345E00083C5E0008FF
:100ECC00445E00084C5E0008545E00085800002088
:100EDC005C0000206000002080B500AF00F09EFD9B
:100EEC0000F02AF800F008F900F090F800F060F833
:100EFC0000F0D8F80B4802F09DFA642310220A493E
:100F0C000A4802F089FE01220949084802F00FFF45
:100F1C00FFF7F4FD074B00221A60FFF76DFAFFF79D
:100F2C0073FAFAE714020020680000205C0200202B
:100F3C00BC0100201C01002080B590B000AF07F16F
:100F4C00180328220021184603F0AEFC3B1D00229A
:100F5C001A605A609A60DA601A610223BB6101233D
:100F6C00BB621023FB6200237B6307F11803184656
:100F7C0001F002FE0346002B01D000F045F90F23CF
:100F8C007B600023BB600023FB6000233B610023DC
:100F9C007B613B1D0021184602F06EF80346002BC6
:100FAC0001D000F031F900BF4037BD4680BD0000D4
:100FBC0080B500AF124B134A1A60114B124A5A609B
:100FCC000F4B00229A600E4B0022DA600C4B4FF450
:100FDC0080421A610A4B00225A61094B00229A6125
:100FEC00074B0022DA61064B00221A62044801F01A
:100FFC0027F90346002B01D000F006F900BF80BD95
:10100C00C001002000540040A086010080B586B0CD
:10101C0000AF07F1080300221A605A609A60DA6088
:10102C003B4600221A605A601D4B4FF080421A60FA
:10103C001B4B41F63F725A60194B00229A60184BB9
:10104C000922DA60164B00221A61154B00229A61B4
:10105C00134802F09FF90346002B01D000F0D4F89E
:10106C004FF48053BB6007F1080319460C4802F09B
:10107C0023FB0346002B01D000F0C6F800233B6095
:10108C0000237B603B461946054802F005FD0346EC
:10109C00002B01D000F0B8F800BF1837BD4680BD5A
:1010AC001402002080B500AF114B124A1A60104B8D
:1010BC004FF416525A600E4B00229A600C4B0022D1
:1010CC00DA600B4B00221A61094B0C225A61084B57
:1010DC0000229A61064B0022DA61054802F04CFDB1
:1010EC000346002B01D000F08FF800BF80BD00BF7D
:1010FC005C0200200044004080B588B000AF07F1CE
:10110C00100300221A605A609A60DA60344B9B69B3
:10111C00334A43F004039361314B9B6903F004039E
:10112C00FB60FB682E4B9B692D4A43F008039361CF
:10113C002B4B9B6903F00803BB60BB68284B9B6976
:10114C00274A43F010039361254B9B6903F010036E
:10115C007B607B6800224FF44871224801F03FF815
:10116C0000222821204801F03AF84FF448733B61E3
:10117C0001237B610023BB610223FB6107F1100398
:10118C001946184800F090FE4FF48A633B61002327
:10119C007B610223BB6107F110031946124800F072
:1011AC0083FE80233B6100237B610223BB6107F13B
:1011BC00100319460D4800F077FE28233B610123EC
:1011CC007B610023BB610223FB6107F1100319460D
:1011DC00054800F069FE00BF2037BD4680BD00BF4A
:1011EC000010024000080140000C014000100140BA
:1011FC0080B582B000AF7860FEF7E2FF00F028F80F
:10120C0000BF0837BD4680BD80B400AF72B600BFCA
:10121C00FEE7000080B483B000AF78603960094B02
:10122C001B683A6892FBF3F207497B6841F823206C
:10123C00064A7B68002142F8231000BF0C37BD46DC
:10124C0080BC704778000020A4020020CC02002053
:10125C0080B400AF214B1B68002B0BDD1F4B1B68B0
:10126C00013B1E4A13601D4B1B68002B02DC1C4B00
:10127C0001221A60194B5B68002B0BDD174B5B6866
:10128C00013B164A5360154B5B68002B02DC144B78
:10129C0001225A60114B9B68002B0BDD0F4B9B6896
:1012AC00013B0E4A93600D4B9B68002B02DC0C4BF0
:1012BC0001229A60094BDB68002B0BDD074BDB68C6
:1012CC00013B064AD360054BDB68002B02DC044B68
:1012DC000122DA6000BFBD4680BC7047A40200202A
:1012EC00CC02002080B485B000AF154B9B69144A2A
:1012FC0043F001039361124B9B6903F00103BB6044
:10130C00BB680F4BDB690E4A43F08053D3610C4B27
:10131C00DB6903F080537B607B680A4B5B68FB6086
:10132C00FB6823F0E063FB60FB6843F00073FB6039
:10133C00044AFB68536000BF1437BD4680BC70473D
:10134C00001002400000014080B58AB000AF786008
:10135C0007F1140300221A605A609A60DA607B6805
:10136C001B681D4A934232D11C4B9B691B4A43F0AC
:10137C0008039361194B9B6903F008033B613B69BC
:10138C004FF440737B611223BB6103233B6207F173
:10139C0014031946124800F087FD124B5B687B6200
:1013AC007B6A43F0E0637B627B6A43F002037B62FF
:1013BC000C4A7B6A5360094BDB69084A43F40013FF
:1013CC00D361064BDB6903F40013FB60FB6800BFC1
:1013DC002837BD4680BD00BF0054004000100240BD
:1013EC00000C01400000014080B584B000AF786073
:1013FC007B681B68B3F1804F13D10C4BDB690B4A34
:10140C0043F00103D361094BDB6903F00103FB607B
:10141C00FB68002200211C2000F05DFC1C2000F069
:10142C0076FC00BF1037BD4680BD00BF00100240E7
:10143C0080B588B000AF786007F1100300221A6005
:10144C005A609A60DA607B681B681F4A934237D1F6
:10145C001E4BDB691D4A43F40033D3611B4BDB6924
:10146C0003F40033FB60FB68184B9B69174A43F08D
:10147C0004039361154B9B6903F00403BB60BB68C9
:10148C0004233B6102237B610323FB6107F11003FF
:10149C0019460F4800F008FD08233B6100237B61CF
:1014AC000023BB6107F110031946094800F0FCFC4E
:1014BC0000220121262000F00EFC262000F027FC43
:1014CC0000BF2037BD4680BD0044004000100240E4
:1014DC000008014080B400AFFEE780B400AFFEE727
:1014EC0080B400AFFEE780B400AFFEE780B400AF7D
:1014FC00FEE780B400AF00BFBD4680BC704780B42F
:10150C0000AF00BFBD4680BC704780B400AF00BFC9
:10151C00BD4680BC704780B500AF00F0C5FA00BF77
:10152C0080BD000080B500AF024801F0D5FF00BFC0
:10153C0080BD00BF1402002080B500AF024802F04D
:10154C001BFC00BF80BD00BF5C02002080B400AF5C
:10155C0001231846BD4680BC704780B582B000AFF1
:10156C007860396003F076F9034616221A604FF062
:10157C00FF3318460837BD4680BD80B582B000AF3A
:10158C0078604FF0FF317868FFF7E7FFFEE780B532
:10159C0086B000AFF860B9607A6000237B610AE026
:1015AC00AFF300800146BB685A1CBA60CAB21A700D
:1015BC007B6901337B617A697B689A42F0DB7B68DB
:1015CC0018461837BD4680BD80B586B000AFF860B0
:1015DC00B9607A6000237B6109E0BB685A1CBA6071
:1015EC001B781846AFF300807B6901337B617A6905
:1015FC007B689A42F1DB7B6818461837BD4680BD84
:10160C0080B483B000AF78604FF0FF3318460C37CE
:10161C00BD4680BC704780B483B000AF7860396041
:10162C003B684FF400525A60002318460C37BD46F5
:10163C0080BC704780B483B000AF7860012318463B
:10164C000C37BD4680BC704780B485B000AFF860E5
:10165C00B9607A60002318461437BD4680BC7047C9
:10166C0080B586B000AF7860144A154BD31A7B61F5
:10167C007B693B61134B1B68002B02D1114B124A47
:10168C001A60104B1A687B6813443A699A4207D265
:10169C0003F0E0F803460C221A604FF0FF3309E028
:1016AC00084B1B68FB60074B1A687B681344054AA0
:1016BC001360FB6818461837BD4680BD00500020EB
:1016CC00000400003C0100200803002080B400AF9F
:1016DC0000BFBD4680BC704780B582B000AF78605B
:1016EC007B68032B36D801A252F823F009170008A7
:1016FC001F1700084B170008351700080022082197
:10170C00174800F06CFD00222021154800F067FD01
:10171C0021E001220821124800F061FD0122202164
:10172C000F4800F05CFD16E0002208210C4800F088
:10173C0056FD012220210A4800F051FD0BE0012248
:10174C000821074800F04BFD00222021044800F03E
:10175C0046FD00E000BF00BF0837BD4680BD00BF9E
:10176C00000C014080B582B000AF78607B68072B1D
:10177C0046D801A252F823F0A51700080D1800084E
:10178C000D1800080D1800080D180008BF170008E8
:10179C00F3170008D917000800224FF400711B48FA
:1017AC0000F01DFD00224FF48071184800F017FD69
:1017BC0027E001224FF40071144800F010FD0122C3
:1017CC004FF48071114800F00AFD1AE001224FF429
:1017DC0000710E4800F003FD00224FF480710B489D
:1017EC0000F0FDFC0DE000224FF40071074800F002
:1017FC00F6FC01224FF48071044800F0F0FC00E08C
:10180C0000BF00BF0837BD4680BD00BF00080140C7
:10181C0080B500AF674B1B680B2B40F0BE80664B4E
:10182C001B68032B51D801A252F823F04918000869
:10183C0065180008B11800088B1800085F4B1B686E
:10184C00012B44D15C4B01221A605D4B1B6819467D
:10185C000020FFF7DFFC3AE0574B1B681846FFF7F8
:10186C003BFF564B1B68012B33D1534B02221A60A2
:10187C00544B1B6819460020FFF7CCFC29E04E4B5B
:10188C001B681846FFF728FF4C4B1B68012B22D115
:10189C00494B01221A604A4B1B6819460020FFF77E
:1018AC00B9FC18E0444B1B681846FFF715FF434B77
:1018BC001B68012B11D1404B03221A60424B1B6851
:1018CC0019460020FFF7A6FC07E000BF06E000BFAA
:1018DC0004E000BF02E000BF00E000BF3B4B1B6810
:1018EC00072B5CD801A252F823F000BF191900088D
:1018FC00AB190008AB190008AB190008AB190008AC
:10190C0035190008811900085B1900082B4B5B681E
:10191C00012B46D12D4B06221A602A4B1B68194607
:10192C000120FFF777FC3CE0284B1B681846FFF7BB
:10193C0019FF224B5B68012B35D1244B06221A6010
:10194C00204B1B6819460120FFF764FC2BE01F4B52
:10195C001B681846FFF706FF184B5B68012B24D158
:10196C001A4B05221A60164B1B6819460120FFF70B
:10197C0051FC1AE0154B1B681846FFF7F3FE0F4B92
:10198C005B68012B13D1114B07221A600E4B1B689D
:10199C0019460120FFF73EFC09E000BF08E000BF3C
:1019AC0006E000BF04E000BF02E000BF00E000BFA3
:1019BC0000BF80BD1C01002020010020CC020020B3
:1019CC0058000020600000205C0000202401002052
:1019DC00FFF77CFE0B480C490C4A002302E0D4585C
:1019EC00C4500433C4188C42F9D3094A094C00235F
:1019FC0001E013600432A242FBD302F031FFFFF787
:101A0C006BFA704700000020EC000020D860000842
:101A1C00EC00002008030020FEE7000080B500AFBA
:101A2C00084B1B68074A43F010031360032000F0B7
:101A3C0047F90F2000F008F8FFF754FC0023184674
:101A4C0080BD00BF0020024080B582B000AF78603E
:101A5C00124B1A68124B1B7819464FF47A73B3FB6E
:101A6C00F1F3B2FBF3F3184600F05FF90346002BD9
:101A7C0001D001230EE07B680F2B0AD80022796875
:101A8C004FF0FF3000F027F9064A7B681360002303
:101A9C0000E0012318460837BD4680BD7C000020BD
:101AAC00840000208000002080B400AF054B1B7820
:101ABC001A46054B1B681344034A136000BFBD460E
:101ACC0080BC704784000020F402002080B400AF7A
:101ADC00024B1B681846BD4680BC7047F4020020C0
:101AEC0080B584B000AF7860FFF7F0FFB8607B681A
:101AFC00FB60FB68B3F1FF3F05D00A4B1B781A461D
:101B0C00FB681344FB6000BFFFF7E0FF0246BB68B5
:101B1C00D31AFA689A42F7D800BF00BF1037BD46F7
:101B2C0080BD00BF8400002080B485B000AF786019
:101B3C007B6803F00703FB600C4BDB68BB60BA6887
:101B4C004FF6FF031340BB60FB681A02BB681343DC
:101B5C0043F0BF6343F40033BB60044ABB68D360FB
:101B6C0000BF1437BD4680BC704700BF00ED00E0DD
:101B7C0080B400AF044BDB681B0A03F00703184664
:101B8C00BD4680BC704700BF00ED00E080B483B060
:101B9C0000AF0346FB7197F90730002B0BDBFB7989
:101BAC0003F01F02064997F907305B09012000FA80
:101BBC0002F241F8232000BF0C37BD4680BC7047B1
:101BCC0000E100E080B483B000AF03463960FB71E4
:101BDC0097F90730002B0ADB3B68DAB20C4997F90E
:101BEC0007301201D2B20B4483F800230AE03B68A1
:101BFC00DAB20849FB7903F00F03043B1201D2B2AD
:101C0C000B441A7600BF0C37BD4680BC704700BF32
:101C1C0000E100E000ED00E080B489B000AFF860B6
:101C2C00B9607A60FB6803F00703FB61FB69C3F1E1
:101C3C000703042B28BF0423BB61FB690433062B69
:101C4C0002D9FB69033B00E000237B614FF0FF32BC
:101C5C00BB6902FA03F3DA43BB681A407B699A400A
:101C6C004FF0FF317B6901FA03F3D9437B680B40DA
:101C7C00134318462437BD4680BC704780B582B0EC
:101C8C0000AF78607B68013BB3F1807F01D3012307
:101C9C000FE00A4A7B68013B53600F214FF0FF3085
:101CAC00FFF790FF054B00229A60044B07221A6045
:101CBC00002318460837BD4680BD00BF10E000E089
:101CCC0080B582B000AF78607868FFF72DFF00BF59
:101CDC000837BD4680BD80B586B000AF0346B960FD
:101CEC007A60FB7300237B61FFF742FF78617A68AF
:101CFC00B9687869FFF790FF024697F90F301146E3
:101D0C001846FFF75FFF00BF1837BD4680BD80B592
:101D1C0082B000AF0346FB7197F907301846FFF706
:101D2C0035FF00BF0837BD4680BD80B582B000AF1F
:101D3C0078607868FFF7A2FF034618460837BD465F
:101D4C0080BD80B485B000AF78600023FB737B68E6
:101D5C0093F82130DBB2022B08D07B6804229A6303
:101D6C007B68002283F82020012320E07B681B681D
:101D7C001A687B681B6822F00E021A607B681B686D
:101D8C001A687B681B6822F001021A607B681A6C67
:101D9C007B68DB6B012101FA02F25A607B6801223D
:101DAC0083F821207B68002283F82020FB7B1846D7
:101DBC001437BD4680BC704780B584B000AF7860E6
:101DCC000023FB737B6893F82130DBB2022B05D028
:101DDC007B6804229A630123FB7351E07B681B68C8
:101DEC001A687B681B6822F00E021A607B681B68FD
:101DFC001A687B681B6822F001021A607B681B68FA
:101E0C00224A934229D07B681B68214A934222D0F4
:101E1C007B681B681F4A93421AD07B681B681E4A5A
:101E2C00934212D07B681B681C4A93420AD07B6891
:101E3C001B681B4A934202D14FF480130EE04FF003
:101E4C0080730BE04FF4803308E04FF4805305E0CF
:101E5C004FF4807302E0102300E00123114A536019
:101E6C007B68012283F821207B68002283F82020E4
:101E7C007B685B6B002B03D07B685B6B7868984747
:101E8C00FB7B18461037BD4680BD00BF08000240E2
:101E9C001C00024030000240440002405800024046
:101EAC006C0002400000024080B48BB000AF786040
:101EBC00396000237B6200233B6269E101227B6A6B
:101ECC0002FA03F3FB613B681B68FA691340BB61C0
:101EDC00BA69FB699A4240F058813B685B689A4A40
:101EEC0093425ED0984A934275D8984A934258D000
:101EFC00964A93426FD8964A934252D0944A934250
:101F0C0069D8944A93424CD0924A934263D8924AED
:101F1C00934246D0904A93425DD8122B2AD8122B6A
:101F2C0059D801A252F823F0AF1F0008891F0008EE
:101F3C009B1F0008DD1F0008E31F0008E31F0008BB
:101F4C00E31F0008E31F0008E31F0008E31F00085D
:101F5C00E31F0008E31F0008E31F0008E31F00084D
:101F6C00E31F0008E31F0008E31F0008911F00088F
:101F7C00A51F0008794A934213D02CE03B68DB681C
:101F8C003B6229E03B68DB6804333B6224E03B683E
:101F9C00DB6808333B621FE03B68DB680C333B6259
:101FAC001AE03B689B68002B02D104233B6213E0D0
:101FBC003B689B68012B05D108233B627B68FA695F
:101FCC001A6109E008233B627B68FA695A6103E0F5
:101FDC0000233B6200E000BFBB69FF2B01D87B688C
:101FEC0001E07B6804337B61BB69FF2B02D87B6A01
:101FFC009B0002E07B6A083B9B003B617B691A6893
:10200C000F213B6901FA03F3DB431A40396A3B6940
:10201C0001FA03F31A437B691A603B685B6803F0AF
:10202C008053002B00F0B1804D4B9B694C4A43F020
:10203C00010393614A4B9B6903F00103BB60BB68CE
:10204C00484A7B6A9B08023352F82330FB607B6A58
:10205C0003F003039B000F2202FA03F3DB43FA683D
:10206C001340FB607B68404A934213D07B683F4A25
:10207C0093420DD07B683E4A934207D07B683D4A21
:10208C00934201D1032306E0042304E0022302E07F
:10209C00012300E000237A6A02F0030292009340CD
:1020AC00FA681343FB602F497B6A9B080233FA687A
:1020BC0041F823203B685B6803F48013002B06D0A7
:1020CC002D4B9A682C49BB6913438B6006E02A4B55
:1020DC009A68BB69DB43284913408B603B685B689B
:1020EC0003F40013002B06D0234BDA682249BB699A
:1020FC001343CB6006E0204BDA68BB69DB431E4917
:10210C001340CB603B685B6803F40033002B06D0B4
:10211C00194B5A681849BB6913434B6006E0164BC0
:10212C005A68BB69DB43144913404B603B685B68DE
:10213C0003F48033002B21D00F4B1A680E49BB6976
:10214C0013430B6021E000BF00003210000031107F
:10215C0000002210000021100000121000001110CD
:10216C00001002400000014000080140000C01403A
:10217C000010014000140140000401400B4B1A6890
:10218C00BB69DB43094913400B607B6A01337B62FB
:10219C003B681A687B6A22FA03F3002B7FF48EAE3D
:1021AC0000BF00BF2C37BD4680BC70470004014007
:1021BC0080B485B000AF78600B467B807B689A68F2
:1021CC007B881340002B02D00123FB7301E000231A
:1021DC00FB73FB7B18461437BD4680BC704780B43C
:1021EC0083B000AF78600B467B8013467B707B78A6
:1021FC00002B03D07A887B681A6103E07B881A0471
:10220C007B681A6100BF0C37BD4680BC704780B438
:10221C0085B000AF78600B467B807B68DB68FB6029
:10222C007A88FB6813401A04FB68D9437B880B40FF
:10223C001A437B681A6100BF1437BD4680BC7047D7
:10224C0080B584B000AF78607B68002B01D101238E
:10225C002BE17B6893F83D30DBB2002B06D17B6819
:10226C00002283F83C207868FFF76EF87B68242204
:10227C0083F83D207B681B681A687B681B6822F01A
:10228C0001021A607B681B681A687B681B6842F441
:10229C0000421A607B681B681A687B681B6822F412
:1022AC0000421A6001F030F8F8607B685B68814A84
:1022BC00934207D8FB68804A934294BF01230023C2
:1022CC00DBB206E0FB687D4A934294BF01230023F6
:1022DC00DBB2002B01D00123E7E0FB68784AA2FBBC
:1022EC0003239B0CBB607B681B685B6823F03F017E
:1022FC007B681B68BA680A435A607B681B681B6A58
:10230C0023F03F017B685B686A4A934202D8BB6842
:10231C00013309E0BB684FF4967202FB03F3694A80
:10232C00A2FB03239B0901337A6812680B431362E7
:10233C007B681B68DB6923F44F4222F0FF027B6849
:10234C005B685C498B4219D8FB68591E7B685B68DB
:10235C005B00B1FBF3F3591C40F6FC730B40002BF4
:10236C000AD0FB68591E7B685B685B00B1FBF3F31A
:10237C000133C3F30B0351E004234FE07B689B68EC
:10238C00002B11D1FB68581E7B6859680B465B000B
:10239C000B44B0FBF3F30133C3F30B03002B0CBF63
:1023AC0001230023DBB212E0FB68581E7B685968DE
:1023BC000B469B000B4499000B44B0FBF3F3013329
:1023CC00C3F30B03002B0CBF01230023DBB2002B48
:1023DC0001D0012322E07B689B68002B0ED1FB68A7
:1023EC00581E7B6859680B465B000B44B0FBF3F33B
:1023FC000133C3F30B0343F400430FE0FB68581E97
:10240C007B6859680B469B000B4499000B44B0FB4E
:10241C00F3F30133C3F30B0343F4404379680968C6
:10242C001343CB617B681B681B6823F0C0017B687E
:10243C00DA697B681B6A1A437B681B680A431A605B
:10244C007B681B689B6823F4034323F0FF037A68C3
:10245C0011697A68D26811437A6812680B439360E9
:10246C007B681B68DB6823F0FF017B685A697B681B
:10247C009B691A437B681B680A43DA607B681B689C
:10248C001A687B681B6842F001021A607B680022A4
:10249C001A647B68202283F83D207B6800221A6333
:1024AC007B68002283F83E20002318461037BD4677
:1024BC0080BD00BFA08601007F841E00FF083D0088
:1024CC0083DE1B43D34D621080B588B002AFF86039
:1024DC007A601A460B467B8113463B81FFF7F6FA6E
:1024EC007861FB6893F83D30DBB2202B40F0E08044
:1024FC007B690093192301227049F86800F064F994
:10250C000346002B01D00223D3E0FB6893F83C3048
:10251C00012B01D10223CCE0FB68012283F83C2083
:10252C00FB681B681B6803F00103012B07D0FB68D9
:10253C001B681A68FB681B6842F001021A60FB6892
:10254C001B681A68FB681B6822F400621A60FB683F
:10255C00212283F83D20FB68102283F83E20FB6883
:10256C0000221A64FB687A685A62FB683A895A85B9
:10257C00FB685B8D9AB2FB681A85FB68504ADA627D
:10258C0079897B693A6AF86800F09CF80346002B5D
:10259C0001D001238DE000233B61FB681B685B6964
:1025AC003B61FB681B689B693B613B6966E07A6930
:1025BC00396AF86800F022FA0346002B0DD0FB684C
:1025CC001B6C042B07D1FB681B681A68FB681B6823
:1025DC0042F400721A6001236BE0FB685B6A1A78A4
:1025EC00FB681B681A61FB685B6A5A1CFB685A62C1
:1025FC00FB685B8D9BB2013B9AB2FB685A85FB680A
:10260C001B8D013B9AB2FB681A85FB681B685B69E2
:10261C0003F00403042B1BD1FB681B8D002B17D07C
:10262C00FB685B6A1A78FB681B681A61FB685B6A5B
:10263C005A1CFB685A62FB685B8D9BB2013B9AB2D9
:10264C00FB685A85FB681B8D013B9AB2FB681A85A7
:10265C007A69396AF86800F019FA0346002B0DD034
:10266C00FB681B6C042B07D1FB681B681A68FB68A2
:10267C001B6842F400721A6001231AE0FB681B8D80
:10268C00002B94D1FB681B681A68FB681B6842F42A
:10269C0000721A60FB68202283F83D20FB68002240
:1026AC0083F83E20FB68002283F83C20002300E0E6
:1026BC00022318461837BD4680BD00BF020010002B
:1026CC000000FFFF80B588B002AFF8607A603B6015
:1026DC000B467B81FB68DB6A7B617B69082B06D030
:1026EC007B69012B03D07B6913F5803F08D1FB6814
:1026FC001B681A68FB681B6842F480721A600BE056
:10270C00FB681B6B122B07D1FB681B681A68FB68F4
:10271C001B6842F480721A603B6800937B6800224D
:10272C004FF00111F86800F04FF80346002B0DD064
:10273C00FB681B681B6803F48073B3F5807F03D1BF
:10274C00FB684FF400721A64032335E0FB681B69C5
:10275C00B3F5804F08D17B89DBB21A46FB681B6846
:10276C0002F0FE021A611BE07B89DB11DBB203F085
:10277C000603DBB263F00F03DAB2FB681B681A6165
:10278C003B687A680E49F86800F098F80346002B0D
:10279C0001D0012310E07B89DAB2FB681B681A6157
:1027AC003B687A680749F86800F088F80346002B04
:1027BC0001D0012300E0002318461837BD4680BD28
:1027CC00080001000200010080B584B000AFF86081
:1027DC00B9603B601346FB7148E03B68B3F1FF3FC7
:1027EC0044D0FFF773F90246BB69D31A3A689A4290
:1027FC0002D33B68002B39D1BB681B0CDBB2012B1D
:10280C000DD1FB681B685B69DA43BB6813409BB254
:10281C00002B0CBF01230023DBB21A460CE0FB6833
:10282C001B689B69DA43BB6813409BB2002B0CBF3F
:10283C0001230023DBB21A46FB799A4216D1FB68BE
:10284C0000221A63FB68202283F83D20FB680022DB
:10285C0083F83E20FB681B6C43F02002FB681A6473
:10286C00FB68002283F83C20012323E0BB681B0C8F
:10287C00DBB2012B0DD1FB681B685B69DA43BB68CB
:10288C0013409BB2002B0CBF01230023DBB21A4672
:10289C000CE0FB681B689B69DA43BB6813409BB276
:1028AC00002B0CBF01230023DBB21A46FB799A42A2
:1028BC0093D0002318461037BD4680BD80B584B038
:1028CC0000AFF860B9607A603B6071E0FB681B6830
:1028DC005B6903F48063B3F5806F23D1FB681B68DD
:1028EC001A68FB681B6842F400721A60FB681B686C
:1028FC006FF480625A61FB6800221A63FB68202225
:10290C0083F83D20FB68002283F83E20FB681B6C9B
:10291C0043F00402FB681A64FB68002283F83C2035
:10292C00012367E07B68B3F1FF3F41D0FFF7CEF89E
:10293C0002463B68D31A7A689A4202D37B68002B12
:10294C0036D1BB681B0CDBB2012B0CD1FB681B68AE
:10295C005B69DA43BB6813409BB2002B14BF0123A5
:10296C000023DBB20BE0FB681B689B69DA43BB6896
:10297C0013409BB2002B14BF01230023DBB2002BAE
:10298C0016D0FB6800221A63FB68202283F83D20D6
:10299C00FB68002283F83E20FB681B6C43F020028E
:1029AC00FB681A64FB68002283F83C20012321E0B9
:1029BC00BB681B0CDBB2012B0CD1FB681B685B6981
:1029CC00DA43BB6813409BB2002B14BF01230023D6
:1029DC00DBB20BE0FB681B689B69DA43BB681340F6
:1029EC009BB2002B14BF01230023DBB2002B7FF41E
:1029FC006DAF002318461037BD4680BD80B584B03E
:102A0C0000AFF860B9607A6034E0F86800F086F8DE
:102A1C000346002B01D0012334E0BB68B3F1FF3F28
:102A2C0028D0FFF753F802467B68D31ABA689A424B
:102A3C0002D3BB68002B1DD1FB681B685B6903F0DC
:102A4C008003802B16D0FB6800221A63FB682022BF
:102A5C0083F83D20FB68002283F83E20FB681B6C4A
:102A6C0043F02002FB681A64FB68002283F83C20C8
:102A7C00012307E0FB681B685B6903F08003802B74
:102A8C00C3D1002318461037BD4680BD80B584B035
:102A9C0000AFF860B9607A6034E0F86800F03EF896
:102AAC000346002B01D0012334E0BB68B3F1FF3F98
:102ABC0028D0FFF70BF802467B68D31ABA689A4203
:102ACC0002D3BB68002B1DD1FB681B685B6903F04C
:102ADC000403042B16D0FB6800221A63FB68202227
:102AEC0083F83D20FB68002283F83E20FB681B6CBA
:102AFC0043F02002FB681A64FB68002283F83C2038
:102B0C00012307E0FB681B685B6903F00403042BDB
:102B1C00C3D1002318461037BD4680BD80B483B0A6
:102B2C0000AF78607B681B685B6903F48063B3F566
:102B3C00806F1BD17B681B686FF480625A617B6865
:102B4C0000221A637B68202283F83D207B680022D8
:102B5C0083F83E207B681B6C43F004027B681A648C
:102B6C007B68002283F83C20012300E000231846F8
:102B7C000C37BD4680BC704780B586B000AF78601E
:102B8C007B68002B01D101236CE27B681B6803F08E
:102B9C000103002B00F08780924B5B6803F00C0361
:102BAC00042B0CD08F4B5B6803F00C03082B12D159
:102BBC008C4B5B6803F48033B3F5803F0BD1894BAE
:102BCC001B6803F40033002B6CD07B685B68002B14
:102BDC0068D1012346E27B685B68B3F5803F06D180
:102BEC00804B1B687F4A43F4803313602EE07B6874
:102BFC005B68002B0CD17B4B1B687A4A23F4803327
:102C0C001360784B1B68774A23F4802313601DE014
:102C1C007B685B68B3F5A02F0CD1724B1B68714AB3
:102C2C0043F4802313606F4B1B686E4A43F480336C
:102C3C0013600BE06B4B1B686A4A23F48033136000
:102C4C00684B1B68674A23F4802313607B685B68BE
:102C5C00002B13D0FEF73AFF386108E0FEF736FF81
:102C6C0002463B69D31A642B01D90323FAE15D4B6D
:102C7C001B6803F40033002BF0D014E0FEF726FFA2
:102C8C00386108E0FEF722FF02463B69D31A642B39
:102C9C0001D90323E6E1534B1B6803F40033002BEB
:102CAC00F0D100E000BF7B681B6803F00203002B2F
:102CBC0063D04C4B5B6803F00C03002B0BD0494BDF
:102CCC005B6803F00C03082B1CD1464B5B6803F4C8
:102CDC008033002B16D1434B1B6803F00203002BEF
:102CEC0005D07B681B69012B01D00123BAE13D4B58
:102CFC001B6823F0F8027B685B69DB0039491343DE
:102D0C000B603AE07B681B69002B20D0364B01220C
:102D1C001A60FEF7DBFE386108E0FEF7D7FE0246CC
:102D2C003B69D31A022B01D903239BE12D4B1B6862
:102D3C0003F00203002BF0D02A4B1B6823F0F8029F
:102D4C007B685B69DB00274913430B6015E0264B5E
:102D5C0000221A60FEF7BAFE386108E0FEF7B6FEF4
:102D6C0002463B69D31A022B01D903237AE11D4B8E
:102D7C001B6803F00203002BF0D17B681B6803F087
:102D8C000803002B3AD07B689B69002B19D0174B9A
:102D9C0001221A60FEF79AFE386108E0FEF796FEF3
:102DAC0002463B69D31A022B01D903235AE10D4B7E
:102DBC005B6A03F00203002BF0D0012000F0CCFA88
:102DCC001CE00A4B00221A60FEF780FE38610FE00F
:102DDC00FEF77CFE02463B69D31A022B08D903236B
:102DEC0040E100BF00100240000042428004424219
:102DFC009E4B5B6A03F00203002BE9D17B681B68D6
:102E0C0003F00403002B00F0A6800023FB75974B06
:102E1C00DB6903F08053002B0DD1944BDB69934A93
:102E2C0043F08053D361914BDB6903F08053BB605B
:102E3C00BB680123FB758E4B1B6803F48073002B5E
:102E4C0018D18B4B1B688A4A43F480731360FEF7CE
:102E5C003DFE386108E0FEF739FE02463B69D31AA5
:102E6C00642B01D90323FDE0814B1B6803F48073B1
:102E7C00002BF0D07B68DB68012B06D17B4B1B6AE7
:102E8C007A4A43F0010313622DE07B68DB68002B68
:102E9C000CD1764B1B6A754A23F001031362734BFA
:102EAC001B6A724A23F0040313621CE07B68DB6824
:102EBC00052B0CD16D4B1B6A6C4A43F00403136257
:102ECC006A4B1B6A694A43F0010313620BE0674BC0
:102EDC001B6A664A23F001031362644B1B6A634A44
:102EEC0023F0040313627B68DB68002B15D0FEF71C
:102EFC00EDFD38610AE0FEF7E9FD02463B69D31AA5
:102F0C0041F28832934201D90323ABE0574B1B6A41
:102F1C0003F00203002BEED014E0FEF7D7FD38616E
:102F2C000AE0FEF7D3FD02463B69D31A41F2883220
:102F3C00934201D9032395E04C4B1B6A03F0020327
:102F4C00002BEED1FB7D012B05D1484BDB69474AA9
:102F5C0023F08053D3617B68DB69002B00F0818008
:102F6C00424B5B6803F00C03082B61D07B68DB6978
:102F7C00022B46D13F4B00221A60FEF7A7FD3861A9
:102F8C0008E0FEF7A3FD02463B69D31A022B01D9D8
:102F9C00032367E0354B1B6803F00073002BF0D163
:102FAC007B681B6AB3F5803F08D1304B5B6823F418
:102FBC0000327B689B682D4913434B602B4B5B683D
:102FCC0023F474127B68196A7B685B6A0B4327498C
:102FDC0013434B60274B01221A60FEF777FD3861D3
:102FEC0008E0FEF773FD02463B69D31A022B01D9A8
:102FFC00032337E01D4B1B6803F00073002BF0D04C
:10300C002FE01C4B00221A60FEF760FD386108E0CF
:10301C00FEF75CFD02463B69D31A022B01D9032350
:10302C0020E0124B1B6803F00073002BF0D118E06A
:10303C007B68DB69012B01D1012313E00B4B5B682F
:10304C00FB60FB6803F480327B681B6A9A4206D1F2
:10305C00FB6803F470127B685B6A9A4201D001230F
:10306C0000E0002318461837BD4680BD0010024012
:10307C00007000406000424280B584B000AF7860C0
:10308C0039607B68002B01D10123D0E06A4B1B68AF
:10309C0003F007033A689A4210D9674B1B6823F078
:1030AC00070265493B6813430B60634B1B6803F0D5
:1030BC0007033A689A4201D00123B8E07B681B6889
:1030CC0003F00203002B20D07B681B6803F0040381
:1030DC00002B05D0594B5B68584A43F4E0635360AE
:1030EC007B681B6803F00803002B05D0534B5B680F
:1030FC00524A43F460535360504B5B6823F0F00228
:10310C007B689B684D4913434B607B681B6803F0DD
:10311C000103002B40D07B685B68012B07D1474B28
:10312C001B6803F40033002B15D101237FE07B686F
:10313C005B68022B07D1414B1B6803F00073002B1B
:10314C0009D1012373E03D4B1B6803F00203002BF4
:10315C0001D101236BE0394B5B6823F003027B68E0
:10316C005B68364913434B60FEF7B0FCF8600AE02D
:10317C00FEF7ACFC0246FB68D31A41F2883293424C
:10318C0001D9032353E02D4B5B6803F00C027B68E1
:10319C005B689B009A42EBD1274B1B6803F007033B
:1031AC003A689A4210D2244B1B6823F0070222493A
:1031BC003B6813430B60204B1B6803F007033A6812
:1031CC009A4201D0012332E07B681B6803F00403B0
:1031DC00002B08D0194B5B6823F4E0627B68DB683A
:1031EC00164913434B607B681B6803F00803002BE4
:1031FC0009D0124B5B6823F460527B681B69DB00BF
:10320C000E4913434B6000F021F802460B4B5B68F0
:10321C001B0903F00F030A49CB5C22FA03F3094A9A
:10322C001360094B1B681846FEF70EFC002318466A
:10323C001037BD4680BD00BF002002400010024088
:10324C00585E00087C0000208000002080B487B00D
:10325C0000AF0023FB600023BB6000237B610023D5
:10326C007B6000233B611E4B5B68FB60FB6803F0DB
:10327C000C03042B02D0082B03D027E0194B3B6125
:10328C0027E0FB689B0C03F00F03174AD35C7B60B1
:10329C00FB6803F48033002B10D0114B5B685B0C84
:1032AC0003F00103114AD35CBB607B680D4A02FB3F
:1032BC0003F2BB68B2FBF3F37B6104E07B680C4A5E
:1032CC0002FB03F37B617B693B6102E0054B3B61D5
:1032DC0000BF3B6918461C37BD4680BC704700BF19
:1032EC000010024000127A00705E0008805E000838
:1032FC0000093D0080B400AF024B1B681846BD4668
:10330C0080BC70477C00002080B500AFFFF7F2FF57
:10331C000246054B5B681B0A03F007030349CB5CB1
:10332C0022FA03F3184680BD00100240685E0008C4
:10333C0080B500AFFFF7DEFF0246054B5B68DB0A8A
:10334C0003F007030349CB5C22FA03F3184680BD54
:10335C0000100240685E000880B485B000AF786051
:10336C000A4B1B680A4AA2FB03235B0A7A6802FB1E
:10337C0003F3FB6000BFFB685A1EFA60002BF9D107
:10338C0000BF00BF1437BD4680BC70477C000020D6
:10339C00D34D621080B582B000AF78607B68002B93
:1033AC0001D1012341E07B6893F83D30DBB2002B67
:1033BC0006D17B68002283F83C207868FEF714F86D
:1033CC007B68022283F83D207B681A687B68043393
:1033DC001946104600F05CFA7B68012283F84620FF
:1033EC007B68012283F83E207B68012283F83F2012
:1033FC007B68012283F840207B68012283F84120FE
:10340C007B68012283F842207B68012283F84320E9
:10341C007B68012283F844207B68012283F84520D5
:10342C007B68012283F83D20002318460837BD46EF
:10343C0080BD000080B485B000AF78607B6893F8E5
:10344C003D30DBB2012B01D001233AE07B68022234
:10345C0083F83D207B681B68DA687B681B6842F048
:10346C000102DA607B681B68184A93420ED07B68B5
:10347C001B68B3F1804F09D07B681B68144A9342D8
:10348C0004D07B681B68134A934211D17B681B687C
:10349C009B6803F00703FB60FB68062B10D07B686E
:1034AC001B681A687B681B6842F001021A6007E00F
:1034BC007B681B681A687B681B6842F001021A6003
:1034CC00002318461437BD4680BC7047002C0140C1
:1034DC00000400400008004080B584B000AF786064
:1034EC007B681B68DB68FB607B681B681B69BB60C7
:1034FC00BB6803F00203002B20D0FB6803F002032F
:10350C00002B1BD07B681B686FF002021A617B6872
:10351C0001221A777B681B689B6903F00303002B5D
:10352C0003D0786800F098F905E0786800F08BF922
:10353C00786800F09AF97B6800221A77BB6803F070
:10354C000403002B20D0FB6803F00403002B1BD0DA
:10355C007B681B686FF004021A617B6802221A7781
:10356C007B681B689B6903F44073002B03D078685D
:10357C0000F072F905E0786800F065F9786800F001
:10358C0074F97B6800221A77BB6803F00803002BE0
:10359C0020D0FB6803F00803002B1BD07B681B6852
:1035AC006FF008021A617B6804221A777B681B682B
:1035BC00DB6903F00303002B03D0786800F04CF9AF
:1035CC0005E0786800F03FF9786800F04EF97B6808
:1035DC0000221A77BB6803F01003002B20D0FB6885
:1035EC0003F01003002B1BD07B681B686FF01002DC
:1035FC001A617B6808221A777B681B68DB6903F405
:10360C004073002B03D0786800F026F905E0786849
:10361C0000F019F9786800F028F97B6800221A7715
:10362C00BB6803F00103002B0CD0FB6803F0010313
:10363C00002B07D07B681B686FF001021A61786859
:10364C00FDF7D6FDBB6803F08003002B0CD0FB68A4
:10365C0003F08003002B07D07B681B686FF080029F
:10366C001A61786800F07FFABB6803F04003002B06
:10367C000CD0FB6803F04003002B07D07B681B6861
:10368C006FF040021A61786800F0F8F8BB6803F03C
:10369C002003002B0CD0FB6803F02003002B07D079
:1036AC007B681B686FF020021A61786800F052FA90
:1036BC0000BF1037BD4680BD80B584B000AF7860C8
:1036CC0039600023FB737B6893F83C30012B01D1EC
:1036DC000223B4E07B68012283F83C207B68022241
:1036EC0083F83D207B681B689B68BB60BB6823F03C
:1036FC007703BB60BB6823F47F43BB607B681B68AC
:10370C00BA689A603B681B68B3F5005F3ED0B3F5AE
:10371C00005F00F28780B3F5805F00F08680B3F520
:10372C00805F7FD8702B1AD0702B7BD8602B50D039
:10373C00602B77D8502B3CD0502B73D8402B58D0C3
:10374C00402B6FD8302B64D0302B6BD8202B60D013
:10375C00202B67D8002B5CD0102B5AD062E07B68F2
:10376C0018683B6899683B685A683B68DB6800F0EE
:10377C0074F97B681B689B68BB60BB6843F077037C
:10378C00BB607B681B68BA689A604FE07B681868FE
:10379C003B6899683B685A683B68DB6800F05DF9E8
:1037AC007B681B689A687B681B6842F480429A604D
:1037BC003CE07B6818683B6859683B68DB681A46D4
:1037CC0000F0D4F87B681B685021184600F02BF9E8
:1037DC002CE07B6818683B6859683B68DB681A46C4
:1037EC0000F0F2F87B681B686021184600F01BF9AA
:1037FC001CE07B6818683B6859683B68DB681A46B4
:10380C0000F0B4F87B681B684021184600F00BF9F7
:10381C000CE07B681A683B681B681946104600F080
:10382C0002F903E00123FB7300E000BF7B68012277
:10383C0083F83D207B68002283F83C20FB7B1846F4
:10384C001037BD4680BD80B483B000AF786000BF38
:10385C000C37BD4680BC704780B483B000AF786035
:10386C0000BF0C37BD4680BC704780B483B000AF3E
:10387C00786000BF0C37BD4680BC704780B483B005
:10388C0000AF786000BF0C37BD4680BC70470000AD
:10389C0080B485B000AF786039607B681B68FB60D2
:1038AC007B682F4A93420BD07B68B3F1804F07D0D3
:1038BC007B682C4A934203D07B682B4A934208D1F5
:1038CC00FB6823F07003FB603B685B68FA6813438A
:1038DC00FB607B68224A93420BD07B68B3F1804F2C
:1038EC0007D07B681F4A934203D07B681E4A9342E1
:1038FC0008D1FB6823F44073FB603B68DB68FA6813
:10390C001343FB60FB6823F080023B685B69134345
:10391C00FB607B68FA681A603B689A687B68DA62BD
:10392C003B681A687B689A627B680D4A934203D1A4
:10393C003B681A697B681A637B6801225A617B6851
:10394C001B6903F00103002B05D07B681B6923F076
:10395C0001027B681A6100BF1437BD4680BC7047FA
:10396C00002C0140000400400008004080B487B0E7
:10397C0000AFF860B9607A60FB681B6A7B61FB681A
:10398C001B6A23F00102FB681A62FB689B693B61AE
:10399C003B6923F0F0033B617B681B013A691343DD
:1039AC003B617B6923F00A037B617A69BB68134333
:1039BC007B61FB683A699A61FB687A691A6200BF9D
:1039CC001C37BD4680BC704780B487B000AFF86030
:1039DC00B9607A60FB681B6A7B61FB681B6A23F029
:1039EC001002FB681A62FB689B693B613B6923F41C
:1039FC0070433B617B681B033A6913433B617B69F2
:103A0C0023F0A0037B61BB681B017A6913437B61C4
:103A1C00FB683A699A61FB687A691A6200BF1C37C5
:103A2C00BD4680BC704780B485B000AF786039600B
:103A3C007B689B68FB60FB6823F07003FB603A6853
:103A4C00FB68134343F00703FB607B68FA689A60DA
:103A5C0000BF1437BD4680BC704780B487B000AF40
:103A6C00F860B9607A603B60FB689B687B617B693E
:103A7C0023F47F437B613B681A027B681A43BB6863
:103A8C0013437A6913437B61FB687A699A6000BFC0
:103A9C001C37BD4680BC704780B485B000AF7860E1
:103AAC0039607B6893F83C30012B01D1022346E04E
:103ABC007B68012283F83C207B68022283F83D203E
:103ACC007B681B685B68FB607B681B689B68BB60E2
:103ADC00FB6823F07003FB603B681B68FA681343B8
:103AEC00FB607B681B68FA685A607B681B68164A27
:103AFC0093420ED07B681B68B3F1804F09D07B6872
:103B0C001B68124A934204D07B681B68104A93428C
:103B1C000CD1BB6823F08003BB603B685B68BA6860
:103B2C001343BB607B681B68BA689A607B68012290
:103B3C0083F83D207B68002283F83C200023184644
:103B4C001437BD4680BC7047002C01400004004077
:103B5C000008004080B483B000AF786000BF0C3721
:103B6C00BD4680BC704780B483B000AF786000BFA6
:103B7C000C37BD4680BC704780B582B000AF786012
:103B8C007B68002B01D1012342E07B6893F8413024
:103B9C00DBB2002B06D17B68002283F840207868CA
:103BAC00FDF746FC7B68242283F841207B681B6868
:103BBC00DA687B681B6822F40052DA60786800F0DF
:103BCC00B7FD7B681B681A697B681B6822F49042FE
:103BDC001A617B681B685A697B681B6822F02A0291
:103BEC005A617B681B68DA687B681B6842F4005278
:103BFC00DA607B6800225A647B68202283F84120BB
:103C0C007B68202283F842207B6800225A630023C1
:103C1C0018460837BD4680BD80B58AB002AFF86043
:103C2C00B9603B601346FB8000237B61FB6893F813
:103C3C004130DBB2202B75D1BB68002B02D0FB8846
:103C4C00002B01D101236EE0FB6800225A64FB6853
:103C5C00212283F84120FDF739FF7861FB68FA884F
:103C6C009A84FB68FA88DA84FB689B68B3F5805FFA
:103C7C0008D1FB681B69002B04D10023FB61BB68D6
:103C8C00BB6103E0BB68FB610023BB612EE03B68BA
:103C9C0000937B6900228021F86800F01CFB03462E
:103CAC00002B05D0FB68202283F8412003233AE047
:103CBC00FB69002B0BD1BB691B881A46FB681B6880
:103CCC00C2F308025A60BB690233BB6107E0FB69AF
:103CDC001A78FB681B685A60FB690133FB61FB684F
:103CEC00DB8C9BB2013B9AB2FB68DA84FB68DB8C01
:103CFC009BB2002BCBD13B6800937B690022402107
:103D0C00F86800F0E8FA0346002B05D0FB68202287
:103D1C0083F84120032306E0FB68202283F841202E
:103D2C00002300E0022318462037BD4680BD80B535
:103D3C0084B000AFF860B9601346FB80FB6893F861
:103D4C004230DBB2202B12D1BB68002B02D0FB8897
:103D5C00002B01D101230BE0FB6800221A63FB88C6
:103D6C001A46B968F86800F00FFB034600E002231E
:103D7C0018461037BD4680BD80B5BAB000AF78602C
:103D8C007B681B681B68C7F8E4307B681B68DB68C2
:103D9C00C7F8E0307B681B685B69C7F8DC30002330
:103DAC00C7F8D8300023C7F8D430D7F8E43003F084
:103DBC000F03C7F8D830D7F8D830002B0FD1D7F86D
:103DCC00E43003F02003002B09D0D7F8E03003F0E7
:103DDC002003002B03D0786800F0ECFB5BE2D7F8F3
:103DEC00D830002B00F0DE80D7F8DC3003F0010374
:103DFC00002B06D1D7F8E03003F49073002B00F0C1
:103E0C00D180D7F8E43003F00103002B0BD0D7F8A6
:103E1C00E03003F48073002B05D07B685B6C43F0BF
:103E2C0001027B685A64D7F8E43003F00403002BDA
:103E3C000BD0D7F8DC3003F00103002B05D07B68E6
:103E4C005B6C43F002027B685A64D7F8E43003F0F1
:103E5C000203002B0BD0D7F8DC3003F00103002B4E
:103E6C0005D07B685B6C43F004027B685A64D7F81E
:103E7C00E43003F00803002B11D0D7F8E03003F046
:103E8C002003002B05D1D7F8DC3003F00103002B05
:103E9C0005D07B685B6C43F008027B685A647B68D6
:103EAC005B6C002B00F0F281D7F8E43003F02003B8
:103EBC00002B08D0D7F8E03003F02003002B02D001
:103ECC00786800F077FB7B681B685B6903F0400344
:103EDC00002B14BF01230023DBB2C7F8D4307B685E
:103EEC005B6C03F00803002B03D1D7F8D430002B04
:103EFC004FD0786800F081FA7B681B685B6903F02F
:103F0C004003002B41D07B681B681433C7F89C30EE
:103F1C00D7F89C3053E8003FC7F89830D7F8983062
:103F2C0023F04003C7F8D0307B681B681433D7F8F4
:103F3C00D020C7F8A820C7F8A430D7F8A410D7F819
:103F4C00A82041E80023C7F8A030D7F8A030002BF8
:103F5C00D9D17B68DB6B002B13D07B68DB6B7E4A83
:103F6C005A637B68DB6B1846FDF726FF0346002B74
:103F7C0016D07B68DB6B5B6B7A68D26B104698470C
:103F8C000EE0786800F093F90AE0786800F08FF999
:103F9C0006E0786800F08BF97B6800225A6475E1C2
:103FAC0000BF73E17B681B6B012B40F04F81D7F88E
:103FBC00E43003F01003002B00F04881D7F8E03018
:103FCC0003F01003002B00F041810023BB607B68E1
:103FDC001B681B68BB607B681B685B68BB60BB684D
:103FEC007B681B685B6903F04003002B00F0B68014
:103FFC007B68DB6B1B685B68A7F8BE30B7F8BE301C
:10400C00002B00F045817B689B8DB7F8BE209A424F
:10401C0080F03E817B68B7F8BE20DA857B68DB6B6D
:10402C009B69202B00F088807B681B680C33C7F8D9
:10403C008830D7F8883053E8003FC7F88430D7F879
:10404C00843023F48073C7F8B8307B681B680C335A
:10405C00D7F8B820C7F89420C7F89030D7F890104C
:10406C00D7F8942041E80023C7F88C30D7F88C306F
:10407C00002BD9D17B681B6814337B677B6F53E8AB
:10408C00003F3B673B6F23F00103C7F8B4307B68FC
:10409C001B681433D7F8B420C7F88020FB67F96F7E
:1040AC00D7F8802041E80023BB67BB6F002BE1D120
:1040BC007B681B6814333B663B6E53E8003FFB6523
:1040CC00FB6D23F04003C7F8B0307B681B681433DA
:1040DC00D7F8B020FA66BB66B96EFA6E41E80023D9
:1040EC007B667B6E002BE3D17B68202283F8422019
:1040FC007B6800221A637B681B680C33FB64FB6CC7
:10410C0053E8003FBB64BB6C23F01003C7F8AC3022
:10411C007B681B680C33D7F8AC20BA657B65796D6E
:10412C00BA6D41E800233B653B6D002BE3D17B6806
:10413C00DB6B1846FDF705FE7B6802225A637B6831
:10414C009A8D7B68DB8D9BB2D31A9BB2194678682B
:10415C0000F0B6F89CE000BFCB4400087B689A8D59
:10416C007B68DB8D9BB2D31AA7F8CE307B68DB8DD6
:10417C009BB2002B00F08E80B7F8CE30002B00F0F5
:10418C0089807B681B680C33BB63BB6B53E8003FB7
:10419C007B637B6B23F49073C7F8C8307B681B6818
:1041AC000C33D7F8C8207A643B64396C7A6C41E8DC
:1041BC000023FB63FB6B002BE3D17B681B68143380
:1041CC007B627B6A53E8003F3B623B6A23F001034E
:1041DC00C7F8C4307B681B681433D7F8C4203A6323
:1041EC00FB62F96A3A6B41E80023BB62BB6A002BA5
:1041FC00E3D17B68202283F842207B6800221A637B
:10420C007B681B680C333B613B6953E8003FFB60E8
:10421C00FB6823F01003C7F8C0307B681B680C33B5
:10422C00D7F8C020FA61BB61B969FA6941E800238B
:10423C007B617B69002BE3D17B6802225A63B7F860
:10424C00CE301946786800F03BF823E0D7F8E4301C
:10425C0003F08003002B09D0D7F8E03003F0800383
:10426C00002B03D0786800F03EF914E0D7F8E43066
:10427C0003F04003002B0ED0D7F8E03003F04003DE
:10428C00002B08D0786800F07DF904E000BF02E054
:10429C0000BF00E000BFE837BD4680BD80B483B0EE
:1042AC0000AF786000BF0C37BD4680BC704780B44F
:1042BC0083B000AF786000BF0C37BD4680BC704740
:1042CC0080B483B000AF78600B467B8000BF0C37A6
:1042DC00BD4680BC704780B586B000AFF860B96051
:1042EC003B601346FB713BE03B6AB3F1FF3F37D0B9
:1042FC00FDF7ECFB02463B68D31A3A6A9A4202D3AA
:10430C003B6A002B01D103233AE0FB681B68DB6896
:10431C0003F00403002B23D0BB68802B20D0BB6898
:10432C00402B1DD0FB681B681B6803F00803082B8F
:10433C0016D100237B61FB681B681B687B61FB68E3
:10434C001B685B687B617B69F86800F056F8FB685A
:10435C0008225A64FB68002283F8402001230FE0F6
:10436C00FB681B681A68BB681340BA689A420CBF9A
:10437C0001230023DBB21A46FB799A42B4D0002306
:10438C0018461837BD4680BD80B485B000AFF860C4
:10439C00B9601346FB80FB68BA689A62FB68FA88BE
:1043AC009A85FB68FA88DA85FB6800225A64FB68F8
:1043BC00222283F84220FB681B69002B07D0FB6884
:1043CC001B68DA68FB681B6842F48072DA60FB6871
:1043DC001B685A69FB681B6842F001025A61FB6852
:1043EC001B68DA68FB681B6842F02002DA60002365
:1043FC0018461437BD4680BC704780B495B000AFEA
:10440C0078607B681B680C337B637B6B53E8003FE5
:10441C003B633B6B23F49073FB647B681B680C332E
:10442C00FA6C3A64FB63F96B3A6C41E80023BB63AA
:10443C00BB6B002BE5D17B681B6814333B623B6A7A
:10444C0053E8003FFB61FB6923F00103BB647B680D
:10445C001B681433BA6CFA62BB62B96AFA6A41E837
:10446C0000237B627B6A002BE5D17B681B6B012BE5
:10447C0019D17B681B680C33FB60FB6853E8003F69
:10448C00BB60BB6823F010037B647B681B680C3338
:10449C007A6CBA617B617969BA6941E800233B6146
:1044AC003B69002BE5D17B68202283F842207B6896
:1044BC0000221A6300BF5437BD4680BC704780B5DC
:1044CC0084B000AF78607B685B6AFB60FB6800229D
:1044DC00DA85FB680022DA84F868FFF7E8FE00BF93
:1044EC001037BD4680BD80B485B000AF78607B6866
:1044FC0093F84130DBB2212B3ED17B689B68B3F53E
:10450C00805F14D17B681B69002B10D17B681B6A00
:10451C00FB60FB681B881A467B681B68C2F30802A9
:10452C005A607B681B6A9A1C7B681A6208E07B687D
:10453C001B6A591C7A6811621A787B681B685A606E
:10454C007B68DB8C9BB2013B9BB27A681946D184A9
:10455C00002B0FD17B681B68DA687B681B6822F024
:10456C008002DA607B681B68DA687B681B6842F043
:10457C004002DA60002300E0022318461437BD46DF
:10458C0080BC704780B582B000AF78607B681B68D8
:10459C00DA687B681B6822F04002DA607B682022B4
:1045AC0083F841207868FFF779FE00231846083716
:1045BC00BD4680BD80B58CB000AF78607B6893F849
:1045CC004230DBB2222B40F0AE807B689B68B3F5A7
:1045DC00805F17D17B681B69002B13D10023FB6212
:1045EC007B689B6ABB627B681B685B689BB2C3F38E
:1045FC0008039AB2BB6A1A807B689B6A9A1C7B6818
:10460C009A6226E07B689B6AFB620023BB627B6834
:10461C009B68B3F5805F07D07B689B68002B0AD141
:10462C007B681B69002B06D17B681B685B68DAB260
:10463C00FB6A1A7008E07B681B685B68DBB203F0EE
:10464C007F03DAB2FB6A1A707B689B6A5A1C7B6820
:10465C009A627B68DB8D9BB2013B9BB27A681946F0
:10466C00D185002B5DD17B681B68DA687B681B6881
:10467C0022F02002DA607B681B68DA687B681B68B2
:10468C0022F48072DA607B681B685A697B681B684D
:10469C0022F001025A617B68202283F842207B6859
:1046AC0000225A637B681B6B012B35D17B6800227F
:1046BC001A637B681B680C337B617B6953E8003F92
:1046CC003B613B6923F010037B627B681B680C33F6
:1046DC007A6A3A62FB61F9693A6A41E80023BB6184
:1046EC00BB69002BE5D17B681B681B6803F01003CA
:1046FC00102B0AD10023FB607B681B681B68FB60D6
:10470C007B681B685B68FB60FB687B689B8D19464C
:10471C007868FFF7D5FD02E07868FCF75BFA0023B8
:10472C0002E0002300E0022318463037BD4680BD6E
:10473C0080B584B000AF78607B681B681B6923F47C
:10474C0040517B68DA687B681B680A431A617B6896
:10475C009A687B681B691A437B685B691343BB606F
:10476C007B681B68DB6823F4B05323F00C037A6876
:10477C001268B9680B43D3607B681B685B6923F4D0
:10478C0040717B689A697B681B680A435A617B6835
:10479C001B682C4A934203D1FEF7CAFDF86002E075
:1047AC00FEF7B2FDF860FA6813469B0013449A00BA
:1047BC001A447B685B689B00B2FBF3F3224AA2FBB2
:1047CC0003235B091901FA6813469B0013449A00F2
:1047DC001A447B685B689B00B2FBF3F21A4BA3FB99
:1047EC0002035B09642000FB03F3D31A1B01323371
:1047FC00154AA2FB03235B0903F0F0031944FA6882
:10480C0013469B0013449A001A447B685B689B0018
:10481C00B2FBF3F20C4BA3FB02035B09642000FB1D
:10482C0003F3D31A1B013233074AA2FB03235B09A0
:10483C0003F00F027B681B680A449A6000BF1037B4
:10484C00BD4680BD003801401F85EB510A22002176
:10485C0000F046B9014B1868704700BF8800002073
:10486C0070B500260C4D0D4C641BA410A64209D14A
:10487C0001F0BEFA00260A4D0A4C641BA410A64295
:10488C0005D170BD55F8043B98470136EEE755F855
:10489C00043B98470136F2E7D0600008D06000086E
:1048AC00D0600008D460000803460244934200D153
:1048BC00704703F8011BF9E70EB46FF0004100B527
:1048CC009CB01DAB029006900791049108480949D1
:1048DC0053F8042B0591006802A9019300F044FAE7
:1048EC000022029B1A701CB05DF804EB03B07047F9
:1048FC00880000200802FFFF10B56AB10139841846
:10490C0010F8013B11F8012F934203D1A04201D0C2
:10491C00002BF5D1981A10BD1046FCE7164B2DE96B
:10492C00F0411F680546BC6D0E46ECB9502000F0F6
:10493C0011F90246B86520B95721104B104800F008
:10494C00D9F8C0E90044C0E90244C0E90444C0E914
:10495C000A44C0E90C44C0E90E44C0E91044C0E963
:10496C00124484610477446231462846BA6D0123AF
:10497C00BDE8F04100F006B888000020885E000811
:10498C009F5E0008F0B508B9106888B104460F4660
:10499C00204614F8015B17F8016B1EB965B928465F
:1049AC00156005E0B542F6D1002BF0D11460037010
:1049BC00F0BD1C460CE015B90E4614F8013B16F878
:1049CC00015BAB42F7D1002BF3D0002304F8013C80
:1049DC001460EDE7012B2DE9F047864601D0242B1E
:1049EC0006D9FFF737FF162303600020BDE8F087D8
:1049FC008C463A4E60461CF8014BA55D15F0080537
:104A0C00F8D12D2C33D14FF001089CF8004000F167
:104A1C00020C002B5DD0102B0CD1302C0AD19CF841
:104A2C00000000F0DF0058284ED110239CF8014004
:104A3C000CF1020C002508F10047013FB7FBF3F91C
:104A4C00284603FB197AA4F13006092E18D83446EF
:104A5C00A34224DD002D1FDB81451DD301D1A245CE
:104A6C001ADB012500FB03401CF8014BEBE72B2C58
:104A7C0008BF9CF80040A84608BF00F1020CC8E72C
:104A8C00A4F14106192E01D8373CE1E7A4F16106E7
:104A9C00192E04D8573CDBE74FF0FF35E4E7002D27
:104AAC0008DA22233846CEF80030002A9ED00CF1CA
:104ABC00FF3107E0B8F1000F00D04042002A95D03A
:104ACC00002DF4D1116091E73024002BB2D10823D2
:104ADC00B0E7302CA3D00A23ACE700BF3D5F000841
:104AEC0013460A46014602480068FFF773BF00BF31
:104AFC00880000201FB514461A46094B05461B6852
:104B0C00D8684CB1074BCDE9013400912B460649CE
:104B1C0000F00EF800F0E6FD044B1C46F3E700BF76
:104B2C0088000020005F00080D5F00083B5F000854
:104B3C000EB403B5014603AB054853F8042B0068CB
:104B4C00019300F039FA02B05DF804EB03B0704742
:104B5C0088000020024B0146186800F04FB800BFD7
:104B6C008800002038B50546002943D051F8043C94
:104B7C000C1F002BB8BFE41801F010F81E4A136884
:104B8C00104633B9636014602846BDE8384001F024
:104B9C000BB8A3420AD921686218934201BF1A6864
:104BAC005B685218226063600460EDE71A465B682C
:104BBC000BB1A342FAD911685018A0420BD120684E
:104BCC000144501883421160DED118685B680144BF
:104BDC0011605360D8E702D90C232B60D4E720680E
:104BEC0021188B4201BF19685B680918216063604A
:104BFC005460C9E738BD00BF40010020F8B5CD1C9A
:104C0C0025F0030508350C2D38BF0C25002D064664
:104C1C0001DBA94203D90C2333600020F8BD00F05E
:104C2C00BDFF21490A6814469CB9204F3B6823B943
:104C3C002146304600F086FC38602946304600F0AC
:104C4C0081FC431C23D10C233046336000F0ACFFB5
:104C5C00E3E723685B1B17D40B2B03D923601C449D
:104C6C00256004E06368A2420CBF0B6053603046C1
:104C7C0000F09AFF04F10B00231D20F00700C21A6C
:104C8C00CCD01B1AA350C9E722466468CCE7C41CDD
:104C9C0024F00304A042E3D0211A304600F052FC69
:104CAC000130DDD1CFE700BF4001002044010020DE
:104CBC002DE9F0478E6882469E420C4690461F4670
:104CCC0038D88A8912F4906F32D02568096901337B
:104CDC00A5EB010965694B4405EB450505EBD5755D
:104CEC006D109D4238BF1D46530531D52946FFF73F
:104CFC0085FF064650B90C234FF0FF30CAF8003040
:104D0C00A38943F04003A381BDE8F0874A4621699B
:104D1C0000F01CFFA38923F4906343F08003A3816C
:104D2C0026614E4426603E466561A5EB0905A560EB
:104D3C00BE4200D93E4632464146206800F014FF80
:104D4C00A36822689B1B32440020A3602260DBE72F
:104D5C002A4600F02FFF06460028E1D15046216973
:104D6C00FFF700FFC7E700002DE9F04F98468B894D
:104D7C0007461B060D4614469DB00ED50B6963B94C
:104D8C004021FFF73BFF2860286120B90C233B60D2
:104D9C004FF0FF30D1E040236B61002309932023B7
:104DAC008DF8293030234FF00109CDF80C80DFF855
:104DBC00A4818DF82A3023469A4613F8012B0AB1A8
:104DCC00252AF9D1BAEB040B0BD05B4622462946B7
:104DDC003846FFF76DFF013000F0AA80099A5A445B
:104DEC0009929AF80030002B00F0A28000234FF0BB
:104DFC00FF32CDE905230AF1010A049307938DF8DC
:104E0C0053301A935446052214F8011B514800F0F4
:104E1C008FFE049AD8B9D00644BF20238DF85330A6
:104E2C00110744BF2B238DF853309AF800302A2BEE
:104E3C0015D0544600204FF00A0C079A214611F861
:104E4C00013B303B092B4ED9B0B1079214E0A0EBDB
:104E5C00080309FA03F31343A2460493D2E7039B16
:104E6C00191D1B680391002BBBBF5B4242F0020271
:104E7C0007930793B8BF049223782E2B0CD1637839
:104E8C002A2B35D1039B02341A1D1B680392002B6D
:104E9C00B8BF4FF0FF330593DFF8C8A0032250468C
:104EAC00217800F045FE40B14023A0EB0A0003FA44
:104EBC0000F0049B01340343049314F8011B0622F5
:104ECC0025488DF8281000F033FE002838D0234BED
:104EDC001BBB039B073323F0070308330393099B86
:104EEC003344099367E70C4601200CFB0232A5E71B
:104EFC0000234FF00A0C194601340593204610F894
:104F0C00012B303A092A03D9002BC5D00591C3E7F0
:104F1C00044601230CFB0121F0E703AB00932A4666
:104F2C0038460F4B04A9AFF30080421C0646D6D17D
:104F3C00AB895B063FF52CAF09981DB0BDE8F08F2F
:104F4C0003AB00932A463846054B04A900F0D4F96C
:104F5C00EBE700BF3D600008476000080000000060
:104F6C00BD4C000843600008936810B4013B002B53
:104F7C00936007DA9469A34201DB0A2902D110BCC1
:104F8C0000F0F0BA1368581C10601970084610BC79
:104F9C007047F8B506460F461446D518AC4201D1F9
:104FAC00002007E03A46304614F8011BFFF7DCFFFF
:104FBC00431CF3D1F8BD00002DE9F04F0D4614460B
:104FCC00984606469DB018B183690BB900F0ACFC4D
:104FDC00894B9D421BD175686B6ED90705D4AB8983
:104FEC009A0502D4A86D00F03DFDAB891B0701D5D5
:104FFC002B69EBB92946304600F006FBC0B16B6E4D
:10500C00DC070ED54FF0FF301DB0BDE8F08F7B4BA9
:10501C009D4201D1B568DFE7794B9D4208BFF56829
:10502C00DAE7AB899805EDD4A86D00F01CFDE9E733
:10503C000023099320238DF8293030234FF00109E8
:10504C00CDF80C80DFF8BC818DF82A3023469A46C7
:10505C0013F8012B0AB1252AF9D1BAEB040B0BD0AA
:10506C005B46224629463046FFF793FF013000F09D
:10507C00AA80099A5A4409929AF80030002B00F041
:10508C00A28000234FF0FF32CDE905230AF1010A7B
:10509C00049307938DF853301A935446052214F851
:1050AC00011B584800F044FD049AD8B9D10644BFFE
:1050BC0020238DF85330130744BF2B238DF8533026
:1050CC009AF800302A2B15D0544600204FF00A0CC9
:1050DC00079A214611F8013B303B092B4ED9B0B150
:1050EC00079214E0A0EB080309FA03F31343A2465A
:1050FC000493D2E7039B191D1B680391002BBBBFC4
:10510C005B4242F0020207930793B8BF04922378E4
:10511C002E2B0CD163782A2B35D1039B02341A1D0C
:10512C001B680392002BB8BF4FF0FF330593DFF8D9
:10513C00E4A003225046217800F0FAFC40B1402351
:10514C00A0EB0A0003FA00F0049B01340343049320
:10515C0014F8011B06222C488DF8281000F0E8FCEE
:10516C0000283FD0294B1BBB039B073323F00703BD
:10517C0008330393099B3B44099367E70C460120D2
:10518C000CFB0232A5E700234FF00A0C1946013440
:10519C000593204610F8012B303A092A03D9002B2D
:1051AC00C5D00591C3E7044601230CFB0121F0E7B0
:1051BC0003AB00932A463046154B04A9AFF300808D
:1051CC000746781CD6D16B6ED90705D4AB899A05E6
:1051DC0002D4A86D00F047FCAB895B063FF512AF1B
:1051EC00099811E703AB00932A463046084B04A9F3
:1051FC0000F082F8E4E700BF90600008B06000089F
:10520C00706000083D600008476000080000000066
:10521C009F4F0008436000082DE9F0471646994659
:10522C008A680B6907469342B8BF1346336091F8FE
:10523C0043200C46DDF820800AB10133336023682B
:10524C00990642BF336802333360256815F00605B2
:10525C0006D104F1190AE36832689B1AAB4228DCC8
:10526C0094F84320131E226818BF012392062DD4F4
:10527C004946384604F14302C047013020D0236828
:10528C00E56803F00603042B18BF002532684FF0C5
:10529C000006A36808BFAD1A226908BF25EAE575A8
:1052AC009342C4BF9B1AED181A34B5421AD1002090
:1052BC0008E00123524649463846C047013003D125
:1052CC004FF0FF30BDE8F0870135C4E73020E1181E
:1052DC0081F843005A1C94F845102244023382F89A
:1052EC004310C5E70123224649463846C0470130E2
:1052FC00E6D00136D9E700002DE9FF470C46277EA2
:10530C009146782F80469A460C9904F1430207D8AF
:10531C00622F0AD8002F00F0D980582F00F0A480FB
:10532C0004F1420684F842703AE0A7F16303152BAE
:10533C00F6D801A050F823F09D530008B153000893
:10534C002D5300082D5300082D5300082D53000831
:10535C00B15300082D5300082D5300082D5300089D
:10536C002D530008BF540008E1530008A154000855
:10537C002D5300082D530008E15400082D5300084C
:10538C00E15300082D5300082D530008A9540008C0
:10539C000B6804F142061A1D1B680A6084F842303F
:1053AC000123A4E0256808682E0600F104030AD541
:1053BC0005680B60002D03DA2D236D4284F8433011
:1053CC000A235E4819E015F0400F05680B6018BF02
:1053DC002DB2EFE70B682568181D0860280601D56B
:1053EC001D6802E06906FBD51D886F2F0CBF0823D2
:1053FC000A235248002184F843106668002EA8BF87
:10540C002168A660A4BF21F0040121600DB9002E13
:10541C004DD01646B5FBF3F103FB1157C75D06F8EB
:10542C00017D2F46BB420D46F4D9082B0BD12368C6
:10543C00DF0708D5236961689942DEBF302306F87F
:10544C00013C06F1FF36921B22614B462146404639
:10545C00CDF800A003AAFFF7DFFE01304CD14FF0CE
:10546C00FF3004B0BDE8F087344884F845700E680E
:10547C00236856F8045B1F060E6014D5D90744BF89
:10548C0043F0200323601DB9236823F0200323601D
:10549C001023AFE7236843F02003236078232848C8
:1054AC0084F84530E3E75E0648BFADB2E6E7164642
:1054BC00BBE70B6826681D1D60690D6035061B680F
:1054CC0001D5186002E07106FBD518800023164642
:1054DC002361BAE70B681A1D0A601E68002130466A
:1054EC00626800F025FB08B1801B60606368236173
:1054FC00002384F84330A8E73246494640462369E6
:10550C00D0470130ABD023689B0713D4E068039BD2
:10551C009842B8BF1846A4E7012332464946404694
:10552C00D04701309BD00135E36803995B1AAB423D
:10553C00F2DCEBE7002504F11906F5E74E600008F4
:10554C005F60000838B50023054D044608462B6003
:10555C00FCF786F8431C02D12B6803B1236038BDDD
:10556C0004030020F8B50E461446054618B18369AD
:10557C000BB900F0D9F9214B9C422BD16C68A36973
:10558C00A360A3891A072FD523696BB323692068FD
:10559C00F6B2C01A63693746834204DC21462846BA
:1055AC0000F02EF930BBA3680130013BA3602368E7
:1055BC005A1C22601E706369834204D0A389DB07E6
:1055CC0006D50A2E04D12146284600F019F988B9CF
:1055DC003846F8BD0A4B9C4201D1AC68CFE7094B69
:1055EC009C4208BFEC68CAE72146284600F00CF83C
:1055FC000028CBD04FF0FF37EAE700BF90600008DF
:10560C00B060000870600008324B70B51D6806462B
:10561C000C4625B1AB6913B9284600F085F92E4B21
:10562C009C420FD16C68A389B4F90C2019072CD4B7
:10563C00DD0611D40923336042F040034FF0FF30F4
:10564C00A3813EE0254B9C4201D1AC68EBE7244B97
:10565C009C4208BFEC68E6E7580712D5616B41B174
:10566C0004F14403994202D03046FFF77BFA002341
:10567C006363A38923F02403A3810023636023695C
:10568C002360A38943F00803A38123694BB9A38941
:10569C0003F42073B3F5007F03D02146304600F0AD
:1056AC0007FAA089B4F90C2010F001030AD00023EA
:1056BC00A36063695B42A361236943B910F0800066
:1056CC00BAD170BD810758BF6369A360F4E70020AD
:1056DC00F7E700BF8800002090600008B060000869
:1056EC0070600008062008B500F0B2FA0120FBF744
:1056FC0044FF00008A892DE9F041054610070C464D
:10570C0058D44B68002B05DC0B6C002B02DC002002
:10571C00BDE8F081E66A002EF9D0002312F4805225
:10572C002F682B6032D0606DA3895A0705D563684A
:10573C00C01A636B0BB1236CC01A00230246E66AD5
:10574C002846216AB047431CA38906D129681D2924
:10575C002CD82A4ACA40D60728D500226260226972
:10576C00D904226004D5421C01D12B6803B96065B1
:10577C00616B2F600029CAD004F14403994202D016
:10578C002846FFF7EFF900206063C1E7216A012387
:10579C002846B047411CC7D12B68002BC4D01D2B09
:1057AC0001D0162B01D12F60B1E7A38943F0400340
:1057BC00A381ADE70F69002FA9D0930718BF002371
:1057CC000E6808BF4B69A6EB07080F608B60B8F139
:1057DC00000F9CDD43463A462846216AA66AB0472C
:1057EC00002806DCA3894FF0FF3043F04003A3816F
:1057FC008EE70744A8EB0008E9E700BF0100402052
:10580C0038B50B6905460C4613B90025284638BD3A
:10581C0018B183690BB900F087F8144B9C421BD16B
:10582C006C68B4F90C30002BEFD0626ED00704D446
:10583C00990502D4A06D00F015F928462146FFF712
:10584C0059FF636E0546DA07E0D4A3899B05DDD4C6
:10585C00A06D00F008F9D9E7054B9C4201D1AC686A
:10586C00DFE7044B9C4208BFEC68DAE79060000865
:10587C00B060000870600008002310B50446C0E951
:10588C000033C0E90433836081814366C281836144
:10589C00194608225C30FFF707F8054B2462636257
:1058AC00044BA362044BE362044B236310BD00BFA3
:1058BC00955C0008B75C0008EF5C0008135D0008FD
:1058CC00014900F0AFB800BF0D58000870B568254D
:1058DC004A1E55430E4605F17401FFF78FF9044635
:1058EC0040B10021C0E900160C30A06005F168023F
:1058FC00FEF7DAFF204670BD014800F0B3B800BFD8
:10590C0000030020014800F0AEB800BF00030020E7
:10591C00014800F0A7B800BFFB020020014800F0CE
:10592C00A2B800BFFB02002010B50446FFF7F0FF41
:10593C00A3691BB1BDE81040FFF7F0BFC4E91233F7
:10594C002365134B134A1B68A262A34208BF0123B1
:10595C00204608BFA36100F01FF86060204600F0ED
:10596C001BF8A060204600F017F800220421E0602C
:10597C006068FFF781FF01220921A068FFF77CFF17
:10598C0002221221E068FFF777FF0123A361D1E720
:10599C00845E0008CD580008F8B50746FFF7ACFF49
:1059AC001E4B1E68B36913B93046FFF7BDFF48366E
:1059BC00D6E90134013B03D533680BB33668F7E7FE
:1059CC00B4F90C50D5B9164B04F15800E360656678
:1059DC0000F047F8FFF796FF08222946C4E9015565
:1059EC00C4E904552560A56104F15C00FEF75CFF79
:1059FC00C4E90D55C4E912552046F8BD6834D9E701
:105A0C0004213846FFF762FF044630600028D5D1E8
:105A1C00FFF778FF0C233B60EEE700BF845E0008C5
:105A2C000100FFFF2DE9F84306468846002700F1E8
:105A3C004804D4E90195B9F1010905D52468002C75
:105A4C00F7D13846BDE8F883AB89012B07D9B5F9F6
:105A5C000E30013303D029463046C0470743683522
:105A6C00E9E770477047704770B50E46B1F90E10F4
:105A7C00144600291D4696B007DA00232B60B38923
:105A8C001A0610D44FF480630EE06A4600F062F9F7
:105A9C000028F2DB019A02F47042A2F500535A423C
:105AAC005A412A60EEE740230020236016B070BDF7
:105ABC008B8973B59D0706460C4607D504F1470341
:105ACC00236023610123636102B070BD6A4601ABA0
